S01500004672656552544F535F4C4142312E73726563E6
S11300000C942A000C9447000C9447000C9447006D
S11300100C9447000C9447000C9447000C94F5048E
S11300200C9447000C9447000C9447000C94470030
S11300300C9447000C9447000C9447000C94470020
S11300400C9447000C9447000C9447000C94470010
S11300500C94470011241FBECFE5D8E0DEBFCDBF0E
S113006010E0A0E6B0E0EEE8F1E102C005900D92E8
S1130070A838B107D9F726E0A8E8B0E001C01D927E
S1130080AB3CB207E1F70E946D030C94C5080C94D5
S11300900000633051F118F4623041F00895643087
S11300A009F442C0653009F45EC00895413069F432
S11300B04AB321E030E0B90102C0660F771F8A9588
S11300C0E2F7CB01842B8ABB089541116AC04AB37D
S11300D021E030E0B90102C0660F771F8A95E2F78C
S11300E0CB01809584238ABB0895413069F447B3DA
S11300F021E030E0B90102C0660F771F8A95E2F76C
S1130100CB01842B87BB089541114BC047B321E039
S113011030E0B90102C0660F771F8A95E2F7CB0180
S11301208095842387BB0895413069F444B321E06A
S113013030E0B90102C0660F771F8A95E2F7CB0160
S1130140842B84BB089541112CC044B321E030E0DA
S1130150B90102C0660F771F8A95E2F7CB0180953B
S1130160842384BB0895413069F441B321E030E035
S1130170B90102C0660F771F8A95E2F7CB01842B81
S113018081BB089541110DC041B321E030E0B901B4
S113019002C0660F771F8A95E2F7CB01809584230E
S11301A081BB0895633051F118F4623041F0089531
S11301B0643009F442C0653009F45EC008954130EA
S11301C069F44BB321E030E0B90102C0660F771F38
S11301D08A95E2F7CB01842B8BBB089541116AC049
S11301E04BB321E030E0B90102C0660F771F8A9556
S11301F0E2F7CB01809584238BBB0895413069F4E9
S113020048B321E030E0B90102C0660F771F8A9538
S1130210E2F7CB01842B88BB089541114BC048B34E
S113022021E030E0B90102C0660F771F8A95E2F73A
S1130230CB018095842388BB0895413069F445B38C
S113024021E030E0B90102C0660F771F8A95E2F71A
S1130250CB01842B85BB089541112CC045B321E00B
S113026030E0B90102C0660F771F8A95E2F7CB012F
S11302708095842385BB0895413069F442B321E01D
S113028030E0B90102C0660F771F8A95E2F7CB010F
S1130290842B82BB089541110DC042B321E030E0AC
S11302A0B90102C0660F771F8A95E2F7CB018095EA
S11302B0842382BB0895833081F018F4823031F0B6
S11302C00895843089F08530B1F008958AB38F7031
S11302D08ABB8AB3682B6ABB08958AB38F708ABBC2
S11302E08AB3682B6ABB08958AB38F708ABB8AB3BA
S11302F0682B6ABB08958AB38F708ABB8AB3682B54
S11303006ABB0895833081F018F4823031F0089587
S1130310843089F08530B1F008958BB38F708BBB36
S11303208BB3682B6BBB089588B38F7088BB88B37D
S1130330682B68BB089585B38F7085BB85B3682B24
S113034065BB089582B38F7082BB82B3682B62BB96
S11303500895CF93DF93EC010E94210780918800D8
S113036090918900892B31F48DE890E09093890075
S1130370809388002097C9F080918A0090918B0027
S11303809E01280F391F2B3D45E0340788F482175E
S1130390930788F4C0918800D0918900C80FD91FB1
S11303A030938B0020938A0008C0C0E0D0E005C0E1
S11303B0C0E0D0E002C0C0E0D0E00E94E507CE017A
S11303C0DF91CF9108950895CF93C82F40E065E061
S11303D080E00E94D20040E065E081E00E94D2000B
S11303E06C2F607F85E00E94820141E065E082E03D
S11303F00E94D2008FE99FE00197F1F700C000004E
S113040040E065E082E00E94D2008091680681307D
S1130410B9F490E1C99FB001112485E00E948201E2
S113042041E065E082E00E94D2008FE99FE00197FD
S1130430F1F700C0000040E065E082E00E94D200D5
S11304408FE99FE00197F1F700C00000CF91089574
S11304501092680641E065E080E00E94490041E0B6
S113046065E081E00E94490041E065E082E00E948D
S1130470490060EF85E00E945B018FE59AEE0197E9
S1130480F1F700C0000080E20E94E40180E20E94D3
S1130490E40180E80E94E4018FE99FE00197F1F70D
S11304A000C0000080E00E94E40180EE0E94E401AC
S11304B08FE99FE00197F1F700C0000080E00E94FF
S11304C0E40180E10E94E4018FE295E70197F1F7EE
S11304D000C0000080E00E94E40180E20E94E40188
S11304E081E0809368060895CF93C82F41E065E0CA
S11304F080E00E94D20040E065E081E00E94D200EA
S11305006C2F607F85E00E94820141E065E082E01B
S11305100E94D2008FE99FE00197F1F700C000002C
S113052040E065E082E00E94D20090E1C99FB00102
S1130530112485E00E94820141E065E082E00E948E
S1130540D2008FE99FE00197F1F700C0000040E07E
S113055065E082E00E94D200CF9108950F931F932B
S1130560CF938C01C0E003C00E947402CF5FF801F6
S1130570EC0FF11D80818111F7CFCF911F910F9165
S11305800895FC010396928381832FEF3FEF348318
S11305902383968385839087878310820895FC0143
S11305A0118610860895CF93DF939C01FB01DC0133
S11305B01196CD91DC911297D383C2838C819D8156
S11305C0958384838C819D81DC0113967C936E9347
S11305D012977D836C8331872087F90180818F5F37
S11305E08083DF91CF910895CF93DF93EB0148810E
S11305F059814F3F2FEF520721F4FC01A781B085A9
S11306000DC0DC01139601C0DF011296ED91FC913F
S113061013972081318142175307B0F71296ED9159
S1130620FC911397FB83EA83D583C483BD83AC8396
S11306301396DC93CE93129799878887FC012081C7
S11306402F5F2083DF91CF910895CF93DF93FC0137
S1130650A085B185C281D381848195819D838C835A
S1130660C481D581828193819B838A8311968D91E4
S11306709C911297E817F90731F4848195811296B9
S11306809C938E931197118610868C9181508C9334
S11306908C91DF91CF91089581E00E94E40181E67D
S11306A090E00E94AE0280ED97E00E945B08F4CFD8
S11306B081E00E94E4018CE690E00E94AE022FE308
S11306C08DE093E0215080409040E1F700C00000AD
S11306D080ED97E00E945B08EBCFEF92FF920F93BF
S11306E00E9428020F2EFBE6EF2EF6E0FF2EF02DDF
S11306F001E020E030E045E550E067E770E088E5A0
S113070093E00E94A1060F2EF9E6EF2EF6E0FF2EED
S1130710F02D02E020E030E045E550E06DE770E0C8
S11307208CE493E00E94A1060E94F50680E090E02C
S11307300F91FF90EF9008951BBC8CE78ABD8BE06E
S11307408EBD89B7806189BF089531E1FC01308392
S1130750319722E220833197A3E3A083319760830A
S11307603197708331971082319760E860833197B5
S11307701082319762E06083319763E06083319740
S113078064E06083319765E06083319766E060835D
S1130790319767E06083319768E06083319769E05F
S11307A06083319760E1608331973083319732E120
S11307B03083319733E13083319734E1308331979B
S11307C035E13083319736E13083319737E1308337
S11307D0319738E13083319739E13083319730E212
S11307E03083319731E2308331972083319723E28C
S11307F020833197408331975083319726E22083B9
S1130800319727E22083319728E22083319729E228
S11308102083319720E32083319721E32083869737
S113082008950E949C03A091C906B091CA06CD9177
S1130830CDBFDD91DEBFFF91EF91DF91CF91BF91ED
S1130840AF919F918F917F916F915F914F913F9164
S11308502F911F910F91FF90EF90DF90CF90BF9059
S1130860AF909F908F907F906F905F904F903F904C
S11308702F901F900F900FBE0F90089581E0089560
S11308800F920FB6F8940F921F9211242F923F9259
S11308904F925F926F927F928F929F92AF92BF928C
S11308A0CF92DF92EF92FF920F931F932F933F9378
S11308B04F935F936F937F938F939F93AF93BF9364
S11308C0CF93DF93EF93FF93A091C906B091CA062B
S11308D00DB60D920EB60D920E947108A091C90634
S11308E0B091CA06CD91CDBFDD91DEBFFF91EF91EE
S11308F0DF91CF91BF91AF919F918F917F916F9134
S11309005F914F913F912F911F910F91FF90EF9025
S1130910DF90CF90BF90AF909F908F907F906F901B
S11309205F904F903F902F901F900F900FBE0F90AD
S113093008950F920FB6F8940F921F9211242F92DC
S11309403F924F925F926F927F928F929F92AF925B
S1130950BF92CF92DF92EF92FF920F931F932F9348
S11309603F934F935F936F937F938F939F93AF9333
S1130970BF93CF93DF93EF93FF93A091C906B091F8
S1130980CA060DB60D920EB60D920E94270781116C
S11309900E947108A091C906B091CA06CD91CDBF3D
S11309A0DD91DEBFFF91EF91DF91CF91BF91AF91C8
S11309B09F918F917F916F915F914F913F912F9173
S11309C01F910F91FF90EF90DF90CF90BF90AF9069
S11309D09F908F907F906F905F904F903F902F905B
S11309E01F900F900FBE0F9008950E9499041895C0
S11309F0E0919106F09192068081811107C08FEFFA
S1130A009FEF90937106809370060895E09191068C
S1130A10F09192060580F681E02D8081918190937A
S1130A207106809370060895CF93DF93EC018F894C
S1130A30988D0E94E301CE010E94E301DF91CF91E2
S1130A4008956F927F928F929F92AF92BF92CF92AE
S1130A50DF92EF920F931F93CF93DF93CDB7DEB75F
S1130A604C01D50157968D919C915897215031098D
S1130A703C01620E731E6115710589F416C0822F44
S1130A8090E0FB01E80FF91F3081D501A80FB91FD1
S1130A9059963C938081882329F02F5F01C020E080
S1130AA0283068F3F50110A203C0D50159961C92B1
S1130AB0B3E0BE1520F40F2EF3E0EF2EF02DF50178
S1130AC0E68AC50102960E94CF02C5010C960E94D7
S1130AD0CF02D5011996BC92AE92189784E090E0AB
S1130AE08E1991091D969C938E931C975396BC92D4
S1130AF0AE92529784E0F501B196DF011D928A957A
S1130B00E9F7F50115A2A801B401C3010E94A503E8
S1130B10D5018D939C93C114D10419F0F601B182CF
S1130B20A082DF91CF911F910F91EF90DF90CF9032
S1130B30BF90AF909F908F907F906F900895CF93C8
S1130B40C0E010C08C2F90E09C01220F331F220FB5
S1130B50331F220F331F820F931F8B55994F0E940F
S1130B60C102CF5FC43070F38CE996E00E94C102E9
S1130B7083E996E00E94C10286E896E00E94C102E1
S1130B808DE796E00E94C1028CE996E0909392066C
S1130B908093910683E996E09093900680938F0664
S1130BA0CF910895CF93DF93EC010FB6F8940F9291
S1130BB080917B068F5F80937B068091C90690911C
S1130BC0CA06892B59F4D093CA06C093C9068091EA
S1130BD07B06813099F40E949F0510C080917706AE
S1130BE081110CC0E091C906F091CA0696898E89DC
S1130BF0891720F0D093CA06C093C9068091720663
S1130C008F5F809372068E8990917806981710F4FE
S1130C108093780690E09C01220F331F220F331F2C
S1130C20220F331F820F931FBE016E5F7F4F8B55C0
S1130C30994F0E94D3020F900FBE809177068823AC
S1130C4051F0E091C906F091CA0696898E899817E9
S1130C5010F40E944004DF91CF910895CF93DF9365
S1130C601CC00FB6F8940F92E0918206F0918306AF
S1130C70C681D781CE0102960E94250380917B060E
S1130C80815080937B0680917C06815080937C0602
S1130C900F900FBECE010E94140580917C06811135
S1130CA0E0CFDF91CF9108950E942E068091A50692
S1130CB08230D0F30E944004F7CF0F931F93CF9359
S1130CC0DF93EC010091790610917A068091C906B0
S1130CD09091CA0602960E942503C00FD11FE0918D
S1130CE0C906F091CA06D383C283C017D10768F43A
S1130CF06091C9067091CA0680918F069091900602
S1130D006E5F7F4F0E94F40217C06091C906709114
S1130D10CA0680919106909192066E5F7F4F0E9461
S1130D20F4028091700690917106C817D90720F4D7
S1130D30D0937106C0937006DF91CF911F910F91EC
S1130D4008952F923F924F925F926F927F928F926B
S1130D509F92AF92BF92CF92DF92EF92FF920F9346
S1130D601F93CF93DF933C011B015A012901CA0150
S1130D700E94A9016C01892B71F086E290E00E9427
S1130D80A901EC01892B19F0D88ECF8A06C0C601BF
S1130D900E94E30102C0C0E0D0E0209791F09501E9
S1130DA040E050E0812C912C5E016701E02E82012D
S1130DB0B101C3010E942105CE010E94D20581E048
S1130DC001C08FEFDF91CF911F910F91FF90EF90B2
S1130DD0DF90CF90BF90AF909F908F907F906F9057
S1130DE05F904F903F902F900895EF92FF920F9352
S1130DF00F2EFEE6EF2EF6E0FF2EF02D00E020E0B1
S1130E0030E045E550E063E870E084E596E00E9458
S1130E10A106813081F4F8948FEF9FEF90937106CF
S1130E208093700681E08093770610927A06109280
S1130E3079060E941104809160000F91FF90EF9059
S1130E40089580916D068F5F80936D060895DF92FB
S1130E50EF92FF920F931F93CF93DF9380916D06D0
S1130E6081119DC0E0907906F0907A068FEFE81A20
S1130E70F80AF0927A06E0927906E114F104B9F4E2
S1130E80809191069091920620918F063091900660
S1130E9030939206209391069093900680938F0648
S1130EA0809173068F5F809373060E94F80480918B
S1130EB0700690917106E816F90628F4D12C53C0F7
S1130EC0DD24D39401C0D12CE0919106F0919206D7
S1130ED08081811107C08FEF9FEF909371068093FB
S1130EE0700641C0E0919106F09192060580F6816A
S1130EF0E02DC681D7818A819B81E816F90628F402
S1130F0090937106809370062EC08E010E5F1F4F62
S1130F10C8010E9425038C899D89892B21F0CE016B
S1130F200C960E9425038E8990917806981710F4E8
S1130F308093780690E09C01220F331F220F331F09
S1130F40220F331F820F931FB8018B55994F0E94B4
S1130F50D3029E89E091C906F091CA068689981742
S1130F6008F0AECFB1CFE091C906F091CA068689E8
S1130F7090E0FC01EE0FFF1FEE0FFF1FEE0FFF1FAF
S1130F808E0F9F1FFC01EB55F94F8081823010F0CA
S1130F90DD24D3948091740681110CC00DC080911E
S1130FA07506909176060196909376068093750661
S1130FB0D12C02C0DD24D3948D2DDF91CF911F91CC
S1130FC00F91FF90EF90DF9008950F931F93CF93AD
S1130FD0DF930FB6F8940F9280916D068150809341
S1130FE06D0680916D0681115CC080917B06811134
S1130FF033C05AC0E0918B06F0918C06C681D7812C
S1131000CE010C960E9425038E010E5F1F4FC8016E
S11310100E9425038E8990917806981710F4809386
S1131020780690E09C01220F331F220F331F220FFA
S1131030331F820F931FB8018B55994F0E94D3021F
S11310409E89E091C906F091CA068689981730F006
S113105081E08093740602C0C0E0D0E080918606EF
S11310608111C8CFCD2B11F00E94F804C0917506F0
S1131070D0917606209769F00E942707882319F0FB
S113108081E0809374062197B9F710927606109246
S1131090750680917406882331F00E94400481E033
S11310A003C080E001C080E00F900FBEDF91CF91BC
S11310B01F910F910895CF93DF93EC01892B49F091
S11310C00E94210760E0CE010E945D060E94E507B0
S11310D001C080E0811102C00E944004DF91CF91E1
S11310E0089580916D06882321F081E08093740631
S11310F00895109274062091780601C02150822F21
S113110090E0FC01EE0FFF1FEE0FFF1FEE0FFF1F1D
S1131110E80FF91FEB55F94F3081332379F3AC0114
S1131120440F551F440F551F440F551F480F591F97
S1131130DF010180F281E02D0280F381E02D12961F
S1131140FC93EE9311974855594FE417F50729F48A
S113115042815381FD0152834183FC01EE0FFF1F45
S1131160EE0FFF1FEE0FFF1F8E0F9F1FFC01EB55AD
S1131170F94F0180F281E02D868197819093CA0610
S11111808093C906209378060895F894FFCF53
S113118E0349276D205461736B20320049276D206B
S113119E5461736B2031007461736B31007461732D
S10B11AE6B320049444C45007A
S9030000FC
