:100000000C942A000C9447000C9447000C94470071
:100010000C9447000C9447000C9447000C942C055A
:100020000C9447000C9447000C9447000C94470034
:100030000C9447000C9447000C9447000C94470024
:100040000C9447000C9447000C9447000C94470014
:100050000C94470011241FBECFE5D8E0DEBFCDBF12
:1000600010E0A0E6B0E0E8EAFAE102C005900D92E7
:10007000A838B107D9F726E0A8E8B0E001C01D9282
:10008000A63DB207E1F70E949E030C94520D0C941A
:100090000000633051F118F4623041F0089564308B
:1000A00009F442C0653009F45EC00895413069F436
:1000B0004AB321E030E0B90102C0660F771F8A958C
:1000C000E2F7CB01842B8ABB089541116AC04AB381
:1000D00021E030E0B90102C0660F771F8A95E2F790
:1000E000CB01809584238ABB0895413069F447B3DE
:1000F00021E030E0B90102C0660F771F8A95E2F770
:10010000CB01842B87BB089541114BC047B321E03D
:1001100030E0B90102C0660F771F8A95E2F7CB0184
:100120008095842387BB0895413069F444B321E06E
:1001300030E0B90102C0660F771F8A95E2F7CB0164
:10014000842B84BB089541112CC044B321E030E0DE
:10015000B90102C0660F771F8A95E2F7CB0180953F
:10016000842384BB0895413069F441B321E030E039
:10017000B90102C0660F771F8A95E2F7CB01842B85
:1001800081BB089541110DC041B321E030E0B901B8
:1001900002C0660F771F8A95E2F7CB018095842312
:1001A00081BB0895633051F118F4623041F0089535
:1001B000643009F442C0653009F45EC008954130EE
:1001C00069F44BB321E030E0B90102C0660F771F3C
:1001D0008A95E2F7CB01842B8BBB089541116AC04D
:1001E0004BB321E030E0B90102C0660F771F8A955A
:1001F000E2F7CB01809584238BBB0895413069F4ED
:1002000048B321E030E0B90102C0660F771F8A953C
:10021000E2F7CB01842B88BB089541114BC048B352
:1002200021E030E0B90102C0660F771F8A95E2F73E
:10023000CB018095842388BB0895413069F445B390
:1002400021E030E0B90102C0660F771F8A95E2F71E
:10025000CB01842B85BB089541112CC045B321E00F
:1002600030E0B90102C0660F771F8A95E2F7CB0133
:100270008095842385BB0895413069F442B321E021
:1002800030E0B90102C0660F771F8A95E2F7CB0113
:10029000842B82BB089541110DC042B321E030E0B0
:1002A000B90102C0660F771F8A95E2F7CB018095EE
:1002B000842382BB0895833081F018F4823031F0BA
:1002C0000895843089F08530B1F008958AB38F7035
:1002D0008ABB8AB3682B6ABB08958AB38F708ABBC6
:1002E0008AB3682B6ABB08958AB38F708ABB8AB3BE
:1002F000682B6ABB08958AB38F708ABB8AB3682B58
:100300006ABB0895833081F018F4823031F008958B
:10031000843089F08530B1F008958BB38F708BBB3A
:100320008BB3682B6BBB089588B38F7088BB88B381
:10033000682B68BB089585B38F7085BB85B3682B28
:1003400065BB089582B38F7082BB82B3682B62BB9A
:100350000895CF93DF93EC010E94F6098091880005
:1003600090918900892B31F48DE890E09093890079
:10037000809388002097C9F080918A0090918B002B
:100380009E01280F391F2B3D45E0340788F4821762
:10039000930788F4C0918800D0918900C80FD91FB5
:1003A00030938B0020938A0008C0C0E0D0E005C0E5
:1003B000C0E0D0E002C0C0E0D0E00E94BA0ACE01A6
:1003C000DF91CF9108950895CF93C82F40E065E065
:1003D00080E00E94D20040E065E081E00E94D2000F
:1003E0006C2F607F85E00E94820141E065E082E041
:1003F0000E94D2008FE99FE00197F1F700C0000052
:1004000040E065E082E00E94D20080916806813081
:10041000B9F490E1C99FB001112485E00E948201E6
:1004200041E065E082E00E94D2008FE99FE0019701
:10043000F1F700C0000040E065E082E00E94D200D9
:100440008FE99FE00197F1F700C00000CF91089578
:100450001092680641E065E080E00E94490041E0BA
:1004600065E081E00E94490041E065E082E00E9491
:10047000490060EF85E00E945B018FE59AEE0197ED
:10048000F1F700C0000080E20E94E40180E20E94D7
:10049000E40180E80E94E4018FE99FE00197F1F711
:1004A00000C0000080E00E94E40180EE0E94E401B0
:1004B0008FE99FE00197F1F700C0000080E00E9403
:1004C000E40180E10E94E4018FE295E70197F1F7F2
:1004D00000C0000080E00E94E40180E20E94E4018C
:1004E00081E0809368060895CF93C82F41E065E0CE
:1004F00080E00E94D20040E065E081E00E94D200EE
:100500006C2F607F85E00E94820141E065E082E01F
:100510000E94D2008FE99FE00197F1F700C0000030
:1005200040E065E082E00E94D20090E1C99FB00106
:10053000112485E00E94820141E065E082E00E9492
:10054000D2008FE99FE00197F1F700C0000040E082
:1005500065E082E00E94D200CF9108950F931F932F
:10056000CF938C01C0E003C00E947402CF5FF801FA
:10057000EC0FF11D80818111F7CFCF911F910F9169
:100580000895FC010396928381832FEF3FEF34831C
:100590002383968385839087878310820895FC0147
:1005A000118610860895CF93DF939C01FB01DC0137
:1005B0001196CD91DC911297D383C2838C819D815A
:1005C000958384838C819D81DC0113967C936E934B
:1005D00012977D836C8331872087F90180818F5F3B
:1005E0008083DF91CF910895CF93DF93EB01488112
:1005F00059814F3F2FEF520721F4FC01A781B085AD
:100600000DC0DC01139601C0DF011296ED91FC9143
:1006100013972081318142175307B0F71296ED915D
:10062000FC911397FB83EA83D583C483BD83AC839A
:100630001396DC93CE93129799878887FC012081CB
:100640002F5F2083DF91CF910895CF93DF93FC013B
:10065000A085B185C281D381848195819D838C835E
:10066000C481D581828193819B838A8311968D91E8
:100670009C911297E817F90731F4848195811296BD
:100680009C938E931197118610868C9181508C9338
:100690008C91DF91CF91089560ED77E080916906AC
:1006A00090916A060E941B07813099F40E94E40130
:1006B00081E690E00E94AE022FE38DE093E02150AE
:1006C00080409040E1F700C0000080ED97E00E947C
:1006D000300B20E040E050E060E070E0809169067F
:1006E00090916A060E946B06D7CF60ED77E080910B
:1006F000690690916A060E941B07813099F40E9456
:10070000E4018CE690E00E94AE022FE38DE093E0DE
:10071000215080409040E1F700C0000080ED97E05C
:100720000E94300B20E040E050E060E070E08091FB
:10073000690690916A060E946B06D7CFEF92FF92EE
:100740000F930E94280281E00E940D0790936A0691
:10075000809369060F2EFDE6EF2EF6E0FF2EF02DBA
:1007600003E020E030E045E550E067E770E08CE42E
:1007700093E00E9476090F2EFBE6EF2EF6E0FF2EA7
:10078000F02D20E030E045E550E06DE770E085E7D2
:1007900093E00E9476090E94CA0980E090E00F91E0
:1007A000FF90EF9008951BBC8CE78ABD8BE08EBD57
:1007B00089B7806189BF089531E1FC0130833197A9
:1007C00022E220833197A3E3A0833197608331979E
:1007D000708331971082319760E86083319710827F
:1007E000319762E06083319763E06083319764E022
:1007F0006083319765E06083319766E0608331976D
:1008000067E06083319768E06083319769E06083D7
:10081000319760E1608331973083319732E13083E3
:10082000319733E13083319734E13083319735E1CB
:100830003083319736E13083319737E13083319718
:1008400038E13083319739E13083319730E23083BA
:10085000319731E2308331972083319723E220832F
:100860003197408331975083319726E22083319727
:1008700027E22083319728E22083319729E22083E1
:10088000319720E32083319721E3208386970895D1
:100890000E94D303A091D406B091D506CD91CDBFCF
:1008A000DD91DEBFFF91EF91DF91CF91BF91AF91CD
:1008B0009F918F917F916F915F914F913F912F9178
:1008C0001F910F91FF90EF90DF90CF90BF90AF906E
:1008D0009F908F907F906F905F904F903F902F9060
:1008E0001F900F900FBE0F90089581E008950F9212
:1008F0000FB6F8940F921F9211242F923F924F92AD
:100900005F926F927F928F929F92AF92BF92CF929F
:10091000DF92EF92FF920F931F932F933F934F938A
:100920005F936F937F938F939F93AF93BF93CF9377
:10093000DF93EF93FF93A091D406B091D5060DB647
:100940000D920EB60D920E94460BA091D406B09166
:10095000D506CD91CDBFDD91DEBFFF91EF91DF9147
:10096000CF91BF91AF919F918F917F916F915F9147
:100970004F913F912F911F910F91FF90EF90DF903A
:10098000CF90BF90AF909F908F907F906F905F902F
:100990004F903F902F901F900F900FBE0F90089593
:1009A0000F920FB6F8940F921F9211242F923F923C
:1009B0004F925F926F927F928F929F92AF92BF926F
:1009C000CF92DF92EF92FF920F931F932F933F935B
:1009D0004F935F936F937F938F939F93AF93BF9347
:1009E000CF93DF93EF93FF93A091D406B091D506F8
:1009F0000DB60D920EB60D920E94FC0981110E9457
:100A0000460BA091D406B091D506CD91CDBFDD9116
:100A1000DEBFFF91EF91DF91CF91BF91AF919F9199
:100A20008F917F916F915F914F913F912F911F9186
:100A30000F91FF90EF90DF90CF90BF90AF909F907D
:100A40008F907F906F905F904F903F902F901F906E
:100A50000F900FBE0F9008950E94D0041895DC01EE
:100A600051962C915197222341F05696ED91FC918D
:100A70005797908185E0891B089580E008950FB60F
:100A8000F8940F92FC01828D811102C081E001C0B7
:100A900080E00F900FBE08950FB6F8940F92FC01FE
:100AA000228D838D281302C081E001C080E00F9069
:100AB0000FBE08950F931F93CF93DF93EC01042F84
:100AC0001A8D4C8D41110CC088819981892B09F0B8
:100AD00042C08C819D810E94A70C1D821C8242C055
:100AE000011117C050E08A819B810E94490D2C8D15
:100AF0008A819B81820F911D9B838A832C813D81FA
:100B00008217930750F1888199819B838A8380E0C3
:100B100029C050E08E819F810E94490D8C8D90E00C
:100B20009195819591092E813F81280F391F3F832F
:100B30002E83488159812417350730F42C813D815B
:100B4000820F931F9F838E83023049F4112349F053
:100B5000115080E007C080E005C080E003C080E065
:100B600001C080E01F5F1A8FDF91CF911F910F911D
:100B700008951F93CF93DF93EC010FB6F8940F9273
:100B80001E8D0BC08989882351F0CE0141960E94A9
:100B9000AC0B81110E94310C115011169CF38FEF98
:100BA0008E8F0F900FBE0FB6F8940F921D8D0BC055
:100BB0008885882351F0CE0108960E94AC0B8111E4
:100BC0000E94310C115011169CF38FEF8D8F0F90F6
:100BD0000FBEDF91CF911F910895CF93DF93EC016A
:100BE0000FB6F8940F92E881F9818B8D2C8D90E0EF
:100BF00030E0829FA001839F500D929F500D1124E1
:100C00004E0F5F1F5D834C831A8EFB83EA8301972F
:100C1000289FA001299F500D389F500D1124CF010E
:100C2000840F951F9F838E838FEF8D8F8E8F611121
:100C30000CC08885882389F0CE0108960E94AC0BF1
:100C4000882359F00E94770408C0CE0108960E94BC
:100C5000C102CE0141960E94C1020F900FBE81E0F9
:100C6000DF91CF9108950F931F93F801611103C095
:100C70001183008302C051834083838F648F61E0BE
:100C8000CF010E94ED051F910F910895DF92EF9221
:100C9000FF920F931F93CF93DF93F82EE62ED42E5F
:100CA000869FC00111244F960E94A901EC01009774
:100CB00049F08C012D2DAC01415E5F4F6E2D8F2DC3
:100CC0000E943306CE01DF91CF911F910F91FF90CB
:100CD000EF90DF900895CF92DF92EF92FF920F9303
:100CE0001F93CF93DF9300D000D01F92CDB7DEB714
:100CF0008C017B015D834C83C22ED12C0FB6F894FE
:100D00000F92F801928D838D981718F0F2E0CF12B0
:100D100019C04C2DB701C8010E945A05F8019189EC
:100D2000992349F0C80141960E94AC0B882331F009
:100D30000E94770403C081110E9477040F900FBEB8
:100D400081E04DC08C819D81892B21F40F900FBED5
:100D500080E045C0D11006C0CE0101960E94F40B80
:100D6000DD24D3940F900FBE0E94F6090FB6F894BD
:100D70000F92F801858D8F3F09F4158EF801868D4D
:100D80008F3F09F4168E0F900FBEBE016C5F7F4F30
:100D9000CE0101960E94FF0B81111BC0C8010E9469
:100DA0004C05882381F06C817D81C80108960E94E2
:100DB0009A0BC8010E94B9050E94BA0A81119ECF00
:100DC0000E9477049BCFC8010E94B9050E94BA0A0D
:100DD00095CFC8010E94B9050E94BA0A80E00F9021
:100DE0000F900F900F900F90DF91CF911F910F9167
:100DF000FF90EF90DF90CF900895009769F0FC018D
:100E00001582148211821082168220E040E050E0A8
:100E100060E070E00E946B060895CF93DF93482F47
:100E200060E081E00E944606EC010E94FD06CE01D2
:100E3000DF91CF910895EF92FF920F931F93CF937D
:100E4000DF9300D000D01F92CDB7DEB78C017D8339
:100E50006C83E12CF12C0FB6F8940F92F801828D7F
:100E60008823D1F08150828F80819181892B29F450
:100E70000E94370DF80195838483F80180858823CB
:100E800039F0C80108960E94AC0B81110E947704CA
:100E90000F900FBE81E074C08C819D81892B21F45D
:100EA0000F900FBE80E06CC0F11006C0CE0101961D
:100EB0000E94F40BFF24F3940F900FBE0E94F609DA
:100EC0000FB6F8940F92F801858D8F3F09F4158EB7
:100ED000F801868D8F3F09F4168E0F900FBEBE016C
:100EE0006C5F7F4FCE0101960E94FF0B81112AC0DB
:100EF000C8010E943F058823F9F0F80180819181A3
:100F0000892B51F40FB6F8940F92848195810E9439
:100F1000350CE82E0F900FBE6C817D81C801419683
:100F20000E949A0BC8010E94B9050E94BA0A811159
:100F300092CF0E9477048FCFC8010E94B9050E940A
:100F4000BA0A89CFC8010E94B9050E94BA0AC8012D
:100F50000E943F05882309F47ECFEE2081F00FB672
:100F6000F8940F92C8010E942F05682FF801848120
:100F700095810E94E70C0F900FBE80E001C080E0D9
:100F80000F900F900F900F900F90DF91CF911F91C6
:100F90000F91FF90EF900895E0919306F0919406E1
:100FA0008081811107C08FEF9FEF9093730680932C
:100FB00072060895E0919306F09194060580F681FB
:100FC000E02D80819181909373068093720608953D
:100FD000CF93DF93EC018F89988D0E94E301CE01BE
:100FE0000E94E301DF91CF9108956F927F928F92DB
:100FF0009F92AF92BF92CF92DF92EF920F931F9387
:10100000CF93DF93CDB7DEB74C01D50157968D91C5
:101010009C915897215031093C01620E731E611555
:10102000710589F416C0822F90E0FB01E80FF91FCB
:101030003081D501A80FB91F59963C938081882330
:1010400029F02F5F01C020E0283068F3F50110A2DD
:1010500003C0D50159961C92B4E0BE1518F46894EB
:10106000EE24E2F8F501E68AE1A212A2C501029699
:101070000E94CF02C5010C960E94CF02D50119969D
:10108000BC92AE92189785E090E08E1991091D965A
:101090009C938E931C975396BC92AE92529784E089
:1010A000F501B396DF011D928A95E9F7F50117A2C4
:1010B000A801B401C3010E94DC03D5018D939C9368
:1010C000C114D10419F0F601B182A082DF91CF9151
:1010D0001F910F91EF90DF90CF90BF90AF909F90B6
:1010E0008F907F906F900895CF93C0E010C08C2FA9
:1010F00090E09C01220F331F220F331F220F331F5A
:10110000820F931F8955994F0E94C102CF5FC5304E
:1011100070F38EE996E00E94C10285E996E00E9494
:10112000C10288E896E00E94C1028FE796E00E9423
:10113000C1028EE996E0909394068093930685E928
:1011400096E09093920680939106CF910895CF9365
:10115000DF93EC010FB6F8940F9280917D068F5FBC
:1011600080937D068091D4069091D506892B59F401
:10117000D093D506C093D40680917D06813099F432
:101180000E94740810C08091790681110CC0E09112
:10119000D406F091D50696898E89891720F0D093D0
:1011A000D506C093D406809174068F5F8093740631
:1011B0008E8990917A06981710F480937A0690E0C1
:1011C0009C01220F331F220F331F220F331F820F68
:1011D000931FBE016E5F7F4F8955994F0E94D302C6
:1011E0000F900FBE80917906882351F0E091D406CC
:1011F000F091D50696898E89981710F40E9477048D
:10120000DF91CF910895CF93DF931CC00FB6F89470
:101210000F92E0918406F0918506C681D781CE01B8
:1012200002960E94250380917D06815080937D0661
:1012300080917E06815080937E060F900FBECE0176
:101240000E94E80780917E068111E0CFDF91CF9167
:1012500008950E9403098091A7068230D0F30E946E
:101260007704F7CF0F931F93CF93DF93EC01009197
:101270007B0610917C068091D4069091D50602964B
:101280000E942503C00FD11FE091D406F091D5062E
:10129000D383C283C017D10768F46091D4067091DC
:1012A000D50680919106909192066E5F7F4F0E94C5
:1012B000F40217C06091D4067091D5068091930610
:1012C000909194066E5F7F4F0E94F40280917206A7
:1012D00090917306C817D90720F4D0937306C09372
:1012E0007206DF91CF911F910F9108952F923F9237
:1012F0004F925F926F927F928F929F92AF92BF9226
:10130000CF92DF92EF92FF920F931F93CF93DF93D1
:101310003C011B015A012901CA010E94A9016C016B
:10132000892B71F088E290E00E94A901EC01892BE1
:1013300019F0D88ECF8A06C0C6010E94E30102C010
:10134000C0E0D0E0209791F0950140E050E0812C82
:10135000912C5E016701E02E8201B101C3010E9460
:10136000F507CE010E94A70881E001C08FEFDF9151
:10137000CF911F910F91FF90EF90DF90CF90BF9092
:10138000AF909F908F907F906F905F904F903F9025
:101390002F900895EF92FF920F930F2EF0E7EF2E0C
:1013A000F6E0FF2EF02D00E020E030E045E550E0D3
:1013B00063E870E089E299E00E947609813081F467
:1013C000F8948FEF9FEF909373068093720681E0FD
:1013D0008093790610927C0610927B060E94480446
:1013E000809160000F91FF90EF90089580916F06BB
:1013F0008F5F80936F060895DF92EF92FF920F93B5
:101400001F93CF93DF9380916F0681119DC0E09071
:101410007B06F0907C068FEFE81AF80AF0927C06C3
:10142000E0927B06E114F104B9F480919306909167
:101430009406209191063091920630939406209361
:1014400093069093920680939106809175068F5F24
:10145000809375060E94CC07809172069091730666
:10146000E816F90628F4D12C53C0DD24D39401C02A
:10147000D12CE0919306F09194068081811107C0F0
:101480008FEF9FEF909373068093720641C0E091B7
:101490009306F09194060580F681E02DC681D781F0
:1014A0008A819B81E816F90628F49093730680934D
:1014B00072062EC08E010E5F1F4FC8010E942503C9
:1014C0008C899D89892B21F0CE010C960E942503E1
:1014D0008E8990917A06981710F480937A0690E09E
:1014E0009C01220F331F220F331F220F331F820F45
:1014F000931FB8018955994F0E94D3029E89E091AC
:10150000D406F091D5068689981708F0AECFB1CFF2
:10151000E091D406F091D506868990E0FC01EE0FAB
:10152000FF1FEE0FFF1FEE0FFF1F8E0F9F1FFC010F
:10153000E955F94F8081823010F0DD24D3948091F9
:10154000760681110CC00DC08091770690917806C7
:1015500001969093780680937706D12C02C0DD2403
:10156000D3948D2DDF91CF911F910F91FF90EF902C
:10157000DF9008950F931F93CF93DF930FB6F894E6
:101580000F9280916F06815080936F0680916F0655
:1015900081115CC080917D06811133C05AC0E091F9
:1015A0008D06F0918E06C681D781CE010C960E94E1
:1015B00025038E010E5F1F4FC8010E9425038E89EF
:1015C00090917A06981710F480937A0690E09C0127
:1015D000220F331F220F331F220F331F820F931F3F
:1015E000B8018955994F0E94D3029E89E091D40693
:1015F000F091D5068689981730F081E080937606C1
:1016000002C0C0E0D0E0809188068111C8CFCD2B08
:1016100011F00E94CC07C0917706D09178062097F0
:1016200069F00E94FC09882319F081E08093760616
:101630002197B9F710927806109277068091760676
:10164000882331F00E94770481E003C080E001C06C
:1016500080E00F900FBEDF91CF911F910F91089501
:10166000CF93DF93EC01892B49F00E94F60960E0EB
:10167000CE010E9432090E94BA0A01C080E08111A5
:1016800002C00E947704DF91CF91089580916F0688
:10169000882321F081E080937606089510927606E3
:1016A00020917A0601C02150822F90E0FC01EE0FBC
:1016B000FF1FEE0FFF1FEE0FFF1FE80FF91FE95589
:1016C000F94F3081332379F3AC01440F551F440F98
:1016D000551F440F551F480F591FDF010180F2812C
:1016E000E02D0280F381E02D1296FC93EE9311978A
:1016F0004655594FE417F50729F442815381FD01FE
:1017000052834183FC01EE0FFF1FEE0FFF1FEE0F10
:10171000FF1F8E0F9F1FFC01E955F94F0180F281D9
:10172000E02D868197819093D5068093D4062093EF
:101730007A060895CF93DF93EB016091D406709100
:10174000D506645F7F4F0E94F40261E0CE010E94E3
:101750003209DF91CF9108950F931F93CF93DF93B9
:10176000DC011596ED91FC911697C681D7818E010B
:10177000045F1F4FC8010E94250380916F068111ED
:101780001CC00A501109C8010E9425038E8990913E
:101790007A06981710F480937A0690E09C01220F45
:1017A000331F220F331F220F331F820F931FB801E5
:1017B0008955994F0E94D30205C0B80188E896E088
:1017C0000E94D3029E89E091D406F091D5068689C5
:1017D000891720F481E08093760601C080E0DF91D4
:1017E000CF911F910F91089520917506FC012083E0
:1017F00020917B0630917C06328321830895CF931C
:10180000DF930FB6F8940F9240917B0650917C06BF
:10181000EC0129813A81DA01A21BB30BF881E09136
:101820007506FE1741F04217530728F0FB0111829D
:10183000108281E011C0EB0128813981A217B30722
:1018400040F42A1B3B0B398328830E94F40B80E071
:1018500003C01982188281E00F900FBEDF91CF91F3
:10186000089581E08093760608950F931F93CF9398
:10187000DF93FC01892B09F462C02689A091D4066C
:10188000B091D50656968C91281708F04EC08485E5
:101890009585992364F0A091D406B091D50656960B
:1018A0003C9185E090E0831B910995878487828530
:1018B000938530E0A901440F551F440F551F440F75
:1018C000551F240F351F2955394F8217930721F5CE
:1018D0008F01EF012296CE010E942503E091D406EC
:1018E000F091D5068689F801868B90917A06981733
:1018F00010F480937A0690E09C01220F331F220F90
:10190000331F220F331F820F931FBE018955994F3A
:101910000E94D30281E016C0A091D406B091D506F2
:1019200056968C91868B81E00DC091A1E091D406F2
:10193000F091D5068689981720F080E003C080E0FA
:1019400001C081E0DF91CF911F910F9108950F9316
:101950001F93CF93DF93FC01892B79F182A18150F2
:1019600082A3268991A1291751F181112AC0EF0183
:101970008F010E5F1F4FC8010E94250389A18E8B26
:1019800025E030E0281B31093D872C8790917A06AD
:10199000981710F480937A0690E09C01220F331F71
:1019A000220F331F220F331F820F931FB801895557
:1019B000994F0E94D30281E005C080E003C080E01F
:1019C00001C080E0DF91CF911F910F9108950F9397
:1019D0001F93CF93DF93FC01892B09F443C091A19E
:1019E000961708F4962F86899817E1F122A12130E5
:1019F000C9F5968B24853585332334F025E030E016
:101A0000291B3109358724872285338590E0AC0175
:101A1000440F551F440F551F440F551F840F951F2A
:101A20008955994F28173907E9F4EF018F010E5FA7
:101A30001F4FC8010E9425038E8990917A0698173E
:101A400010F480937A0690E09C01220F331F220F3E
:101A5000331F220F331F820F931FB8018955994FEF
:101A60000E94D302DF91CF911F910F910895809131
:101A7000D4069091D506892B39F0E091D406F091E7
:101A8000D50682A18F5F82A38091D4069091D5065E
:101A90000895FB01DC0102C001900D9241505040BD
:081AA000D8F70895F894FFCF78
:101AA8000449276D205461736B20310049276D204C
:101AB8005461736B2032007461736B31007461730D
:081AC8006B320049444C45005B
:00000001FF
