S02B00004672656552544F53204C414232205461736B2053656D6170686F72652053796E63726F6E697A6174AE
S11300000C942A000C945D020C9484020C94AB02B0
S11300100C9447000C9447000C9447000C94F4058E
S11300200C9447000C9447000C9447000C94470030
S11300300C9447000C9447000C9447000C94470020
S11300400C9447000C9447000C9447000C94470010
S11300500C94470011241FBECFE5D8E0DEBFCDBF0E
S113006010E0A0E6B0E0EAE6F7E102C005900D92E8
S1130070AC37B107D9F726E0ACE7B0E001C01D9278
S1130080AE3CB207E1F70E9474040C94B30B0C94D9
S11300900000633051F118F4623041F00895643087
S11300A009F442C0653009F45EC00895413069F432
S11300B04AB321E030E0B90102C0660F771F8A9588
S11300C0E2F7CB01842B8ABB089541116AC04AB37D
S11300D021E030E0B90102C0660F771F8A95E2F78C
S11300E0CB01809584238ABB0895413069F447B3DA
S11300F021E030E0B90102C0660F771F8A95E2F76C
S1130100CB01842B87BB089541114BC047B321E039
S113011030E0B90102C0660F771F8A95E2F7CB0180
S11301208095842387BB0895413069F444B321E06A
S113013030E0B90102C0660F771F8A95E2F7CB0160
S1130140842B84BB089541112CC044B321E030E0DA
S1130150B90102C0660F771F8A95E2F7CB0180953B
S1130160842384BB0895413069F441B321E030E035
S1130170B90102C0660F771F8A95E2F7CB01842B81
S113018081BB089541110DC041B321E030E0B901B4
S113019002C0660F771F8A95E2F7CB01809584230E
S11301A081BB0895633051F118F4623041F0089531
S11301B0643009F442C0653009F45EC008954130EA
S11301C069F44BB321E030E0B90102C0660F771F38
S11301D08A95E2F7CB01842B8BBB089541116AC049
S11301E04BB321E030E0B90102C0660F771F8A9556
S11301F0E2F7CB01809584238BBB0895413069F4E9
S113020048B321E030E0B90102C0660F771F8A9538
S1130210E2F7CB01842B88BB089541114BC048B34E
S113022021E030E0B90102C0660F771F8A95E2F73A
S1130230CB018095842388BB0895413069F445B38C
S113024021E030E0B90102C0660F771F8A95E2F71A
S1130250CB01842B85BB089541112CC045B321E00B
S113026030E0B90102C0660F771F8A95E2F7CB012F
S11302708095842385BB0895413069F442B321E01D
S113028030E0B90102C0660F771F8A95E2F7CB010F
S1130290842B82BB089541110DC042B321E030E0AC
S11302A0B90102C0660F771F8A95E2F7CB018095EA
S11302B0842382BB0895833081F018F4823031F0B6
S11302C00895843089F08530B1F008958AB38F7031
S11302D08ABB8AB3682B6ABB08958AB38F708ABBC2
S11302E08AB3682B6ABB08958AB38F708ABB8AB3BA
S11302F0682B6ABB08958AB38F708ABB8AB3682B54
S11303006ABB0895833081F018F4823031F0089587
S1130310843089F08530B1F008958BB38F708BBB36
S11303208BB3682B6BBB089588B38F7088BB88B37D
S1130330682B68BB089585B38F7085BB85B3682B24
S113034065BB089582B38F7082BB82B3682B62BB96
S11303500895CF93DF93EC010E948A0980917C0079
S113036090917D00892B31F481E890E090937D0099
S113037080937C002097C9F080917E0090917F004B
S11303809E01280F391F2B3D45E0340788F482175E
S1130390930788F4C0917C00D0917D00C80FD91FC9
S11303A030937F0020937E0008C0C0E0D0E005C0F9
S11303B0C0E0D0E002C0C0E0D0E00E944E0ACE010E
S11303C0DF91CF91089508959FB790689FBF8530BE
S11303D061F1863009F44FC0843009F05AC08BB7FC
S11303E080648BBF633039F485B78E7F85BF85B752
S11303F08D7F85BF1AC0623039F485B7816085BFAF
S113040085B78D7F85BF11C0611107C085B7826034
S113041085BF85B78E7F85BF08C0613031F485B74D
S1130420816085BF85B7826085BF8BB780688BBFCD
S1130430633039F485B78B7F85BF85B7877F85BFE8
S11304401AC0623039F485B7846085BF85B7877F69
S113045085BF11C0611107C085B7886085BF85B7A6
S11304608B7F85BF08C0613031F485B7846085BF58
S113047085B7886085BF8BB780628BBF611104C06C
S113048084B78F7B84BF0895613019F484B7806486
S113049084BF0895653041F0663051F0643061F4F2
S11304A09093C9068093C8069093CD068093CC069A
S11304B09093CB068093CA0608951F920F920FB6AD
S11304C00F9211242F933F934F935F936F937F93D6
S11304D08F939F93AF93BF93EF93FF93E091C806DD
S11304E0F091C9060995FF91EF91BF91AF919F914A
S11304F08F917F916F915F914F913F912F910F90C9
S11305000FBE0F901F9018951F920F920FB60F9267
S113051011242F933F934F935F936F937F938F9304
S11305209F93AF93BF93EF93FF93E091CC06F09129
S1130530CD060995FF91EF91BF91AF919F918F9156
S11305407F916F915F914F913F912F910F900FBECB
S11305500F901F9018951F920F920FB60F921124AF
S11305602F933F934F935F936F937F938F939F93B7
S1130570AF93BF93EF93FF93E091CA06F091CB063C
S11305800995FF91EF91BF91AF919F918F917F91C9
S11305906F915F914F913F912F910F900FBE0F90EC
S11305A01F901895CF93C82F40E065E080E00E942B
S11305B0D20040E065E081E00E94D2006C2F607FB1
S11305C085E00E94820141E065E082E00E94D20061
S11305D08FE99FE00197F1F700C0000040E065E07B
S11305E082E00E94D20080915C068130B9F490E1EF
S11305F0C99FB001112485E00E94820141E065E0B9
S113060082E00E94D2008FE99FE00197F1F700C0D9
S1130610000040E065E082E00E94D2008FE99FE0A4
S11306200197F1F700C00000CF91089510925C0685
S113063041E065E080E00E94490041E065E081E03E
S11306400E94490041E065E082E00E94490060EFB9
S113065085E00E945B018FE59AEE0197F1F700C0F7
S1130660000080E20E94D20280E20E94D20280E86E
S11306700E94D2028FE99FE00197F1F700C00000C9
S113068080E00E94D20280EE0E94D2028FE99FE0B5
S11306900197F1F700C0000080E00E94D20280E1DF
S11306A00E94D2028FE295E70197F1F700C00000A3
S11306B080E00E94D20280E20E94D20281E0809314
S11306C05C060895CF93C82F41E065E080E00E9466
S11306D0D20040E065E081E00E94D2006C2F607F90
S11306E085E00E94820141E065E082E00E94D20040
S11306F08FE99FE00197F1F700C0000040E065E05A
S113070082E00E94D20090E1C99FB001112485E0EB
S11307100E94820141E065E082E00E94D2008FE9FC
S11307209FE00197F1F700C0000040E065E082E03F
S11307300E94D200CF9108950F931F93CF938C0101
S1130740C0E003C00E946203CF5FF801EC0FF11D0B
S113075080818111F7CFCF911F910F910895FC01F2
S11307600396928381832FEF3FEF34832383968311
S113077085839087878310820895FC0111861086F3
S11307800895CF93DF939C01FB01DC011196CD9179
S1130790DC911297D383C2838C819D81958384835A
S11307A08C819D81DC0113967C936E9312977D83DB
S11307B06C8331872087F90180818F5F8083DF918B
S11307C0CF910895CF93DF93EB01488159814F3F37
S11307D02FEF520721F4FC01A781B0850DC0DC0185
S11307E0139601C0DF011296ED91FC9113972081BD
S11307F0318142175307B0F71296ED91FC9113978C
S1130800FB83EA83D583C483BD83AC831396DC93D3
S1130810CE93129799878887FC0120812F5F2083CC
S1130820DF91CF910895CF93DF93FC01A085B1852B
S1130830C281D381848195819D838C83C481D58138
S1130840828193819B838A8311968D919C911297C7
S1130850E817F90731F48481958112969C938E935D
S11308601197118610868C9181508C938C91DF9115
S1130870CF9108956FEF7FEF80915D0690915E06B2
S11308800E94DF068130B1F781E690E00E949C036C
S11308902FEB87E299E0215080409040E1F700C0BF
S11308A0000081E00E94D202E5CF60E070E0809118
S11308B05D0690915E060E94B60608950E94160396
S11308C040E063E082E00E94490041E063E082E0AE
S11308D00E94D20060E086E00E94E40166E085E5C3
S11308E094E00E944A020895EF92FF920F930E94AF
S11308F05E0443E060E081E00E94910690935E060E
S113090080935D060F2EFFE5EF2EF6E0FF2EF02D0F
S113091003E020E030E045E550E060E770E08AE382
S113092094E00E940A090E945E0980E090E00F9121
S1130930FF90EF9008951BBC8CE78ABD8BE08EBDC1
S113094089B7806189BF089531E1FC013083319713
S113095022E220833197A3E3A08331976083319708
S1130960708331971082319760E8608331971082E9
S1130970319762E06083319763E06083319764E08C
S11309806083319765E06083319766E060833197D7
S113099067E06083319768E06083319769E0608342
S11309A0319760E1608331973083319732E130834E
S11309B0319733E13083319734E13083319735E136
S11309C03083319736E13083319737E13083319783
S11309D038E13083319739E13083319730E2308325
S11309E0319731E2308331972083319723E220839A
S11309F03197408331975083319726E22083319792
S1130A0027E22083319728E22083319729E220834B
S1130A10319720E32083319721E32083869708953B
S1130A200E949B04A091C606B091C706CD91CDBF8C
S1130A30DD91DEBFFF91EF91DF91CF91BF91AF9137
S1130A409F918F917F916F915F914F913F912F91E2
S1130A501F910F91FF90EF90DF90CF90BF90AF90D8
S1130A609F908F907F906F905F904F903F902F90CA
S1130A701F900F900FBE0F90089581E008950F927C
S1130A800FB6F8940F921F9211242F923F924F9217
S1130A905F926F927F928F929F92AF92BF92CF920A
S1130AA0DF92EF92FF920F931F932F933F934F93F5
S1130AB05F936F937F938F939F93AF93BF93CF93E2
S1130AC0DF93EF93FF93A091C606B091C7060DB6CE
S1130AD00D920EB60D920E94C40AA091C606B09162
S1130AE0C706CD91CDBFDD91DEBFFF91EF91DF91C0
S1130AF0CF91BF91AF919F918F917F916F915F91B2
S1130B004F913F912F911F910F91FF90EF90DF90A4
S1130B10CF90BF90AF909F908F907F906F905F9099
S1130B204F903F902F901F900F900FBE0F900895FD
S1130B300F920FB6F8940F921F9211242F923F92A6
S1130B404F925F926F927F928F929F92AF92BF92D9
S1130B50CF92DF92EF92FF920F931F932F933F93C5
S1130B604F935F936F937F938F939F93AF93BF93B1
S1130B70CF93DF93EF93FF93A091C606B091C7067E
S1130B800DB60D920EB60D920E94900981110E942D
S1130B90C40AA091C606B091C706CD91CDBFDD9120
S1130BA0DEBFFF91EF91DF91CF91BF91AF919F9104
S1130BB08F917F916F915F914F913F912F911F91F1
S1130BC00F91FF90EF90DF90CF90BF90AF909F90E8
S1130BD08F907F906F905F904F903F902F901F90D9
S1130BE00F900FBE0F9008950E94980518950FB6A8
S1130BF0F8940F92FC01828D811102C081E001C042
S1130C0080E00F900FBE08951F93CF93DF93EC0104
S1130C100FB6F8940F921E8D0BC08989882351F06A
S1130C20CE0141960E942A0B81110E94AF0B1150F4
S1130C3011169CF38FEF8E8F0F900FBE0FB6F894A2
S1130C400F921D8D0BC08885882351F0CE01089624
S1130C500E942A0B81110E94AF0B115011169CF3B4
S1130C608FEF8D8F0F900FBEDF91CF911F9108955D
S1130C70CF93DF93EC010FB6F8940F92E881F981DA
S1130C808B8D2C8D90E030E0829FA001839F500DCE
S1130C90929F500D11244E0F5F1F5D834C831A8E5B
S1130CA0FB83EA830197289FA001299F500D389F59
S1130CB0500D1124CF01840F951F9F838E838FEFD6
S1130CC08D8F8E8F61110CC08885882389F0CE01A9
S1130CD008960E942A0B882359F00E943F0508C0F9
S1130CE0CE0108960E94AF03CE0141960E94AF0345
S1130CF00F900FBE81E0DF91CF9108950F931F9362
S1130D00F801611103C01183008302C05183408341
S1130D10838F648F61E0CF010E9438061F910F9189
S1130D200895DF92EF92FF920F931F93CF93DF9377
S1130D30F82EE62ED42E869FC00111244F960E94D1
S1130D40A901EC01009749F08C012D2DAC01415E05
S1130D505F4F6E2D8F2D0E947E06CE01DF91CF91C5
S1130D601F910F91FF90EF90DF900895CF93DF9341
S1130D70FC01828D938D8917C0F4968D8F5F828FCD
S1130D809F3F79F48189882391F0EB01CF0141964B
S1130D900E942A0B882369F0209769F081E08883F8
S1130DA00BC09F5F968F81E007C080E005C081E0A3
S1130DB003C081E001C081E0DF91CF910895FF92EB
S1130DC00F931F93CF93DF9300D000D01F92CDB722
S1130DD0DEB78C017D836C83F12C0FB6F8940F92EF
S1130DE0F801828D882381F08150828F8085882349
S1130DF039F0C80108960E942A0B81110E943F0510
S1130E000F900FBE81E053C08C819D81892B21F40A
S1130E100F900FBE80E04BC0F11006C0CE010196CA
S1130E200E94720BFF24F3940F900FBE0E948A0954
S1130E300FB6F8940F92F801858D8F3F09F4158E43
S1130E40F801868D8F3F09F4168E0F900FBEBE01F8
S1130E506C5F7F4FCE0101960E947D0B81111BC0F8
S1130E60C8010E94F705882381F06C817D81C80147
S1130E7041960E94180BC8010E9404060E944E0A63
S1130E808111ABCF0E943F05A8CFC8010E94040680
S1130E900E944E0AA2CFC8010E9404060E944E0A74
S1130EA0C8010E94F705882309F497CF80E00F90CA
S1130EB00F900F900F900F90DF91CF911F910F9192
S1130EC0FF900895E0918506F09186068081811156
S1130ED007C08FEF9FEF9093650680936406089593
S1130EE0E0918506F09186060580F681E02D8081EB
S1130EF0918190936506809364060895CF93DF9360
S1130F00EC018F89988D0E94E301CE010E94E301D8
S1130F10DF91CF9108956F927F928F929F92AF92BB
S1130F20BF92CF92DF92EF920F931F93CF93DF93F1
S1130F30CDB7DEB74C01D50157968D919C9158974A
S1130F40215031093C01620E731E6115710589F44B
S1130F5016C0822F90E0FB01E80FF91F3081D50104
S1130F60A80FB91F59963C938081882329F02F5FDD
S1130F7001C020E0283068F3F50110A203C0D501B8
S1130F8059961C92B4E0BE1518F46894EE24E2F865
S1130F90F501E68AC50102960E94BD03C5010C96BF
S1130FA00E94BD03D5011996BC92AE92189785E0B4
S1130FB090E08E1991091D969C938E931C975396DD
S1130FC0BC92AE92529784E0F501B196DF011D9276
S1130FD08A95E9F7F50115A2A801B401C3010E949D
S1130FE0A404D5018D939C93C114D10419F0F60186
S1130FF0B182A082DF91CF911F910F91EF90DF908A
S1131000CF90BF90AF909F908F907F906F900895F6
S1131010CF93C0E010C08C2F90E09C01220F331FAF
S1131020220F331F220F331F820F931F8756994FAE
S11310300E94AF03CF5FC53070F380E996E00E9451
S1131040AF0387E896E00E94AF038AE796E00E9428
S1131050AF0381E796E00E94AF0380E996E09093A6
S113106086068093850687E896E0909384068093AD
S11310708306CF910895CF93DF93EC010FB6F894D4
S11310800F9280916F068F5F80936F068091C606E2
S11310909091C706892B59F4D093C706C093C6060E
S11310A080916F06813099F40E94080810C08091E5
S11310B06B0681110CC0E091C606F091C7069689B3
S11310C08E89891720F0D093C706C093C6068091F5
S11310D066068F5F809366068E8990916C069817DA
S11310E010F480936C0690E09C01220F331F220FB2
S11310F0331F220F331F820F931FBE016E5F7F4F7A
S11311008756994F0E94C1030F900FBE80916B06C2
S1131110882351F0E091C606F091C70696898E891E
S1131120981710F40E943F05DF91CF910895CF9353
S1131130DF931CC00FB6F8940F92E0917606F091FD
S11311407706C681D781CE0102960E94130480914E
S11311506F06815080936F06809170068150809352
S113116070060F900FBECE010E947E07809170061C
S11311708111E0CFDF91CF9108950E94970880916B
S113118099068230D0F30E943F05F7CF0F931F9347
S1131190CF93DF93EC0100916D0610916E06809160
S11311A0C6069091C70602960E941304C00FD11F71
S11311B0E091C606F091C706D383C283C017D10756
S11311C068F46091C6067091C70680918306909179
S11311D084066E5F7F4F0E94E20317C06091C606CB
S11311E07091C70680918506909186066E5F7F4F49
S11311F00E94E2038091640690916506C817D9079E
S113120020F4D0936506C0936406DF91CF911F91BB
S11312100F9108952F923F924F925F926F927F9217
S11312208F929F92AF92BF92CF92DF92EF92FF92F2
S11312300F931F93CF93DF933C011B015A012901A4
S1131240CA010E94A9016C01892B71F086E290E029
S11312500E94A901EC01892B19F0D88ECF8A06C00F
S1131260C6010E94E30102C0C0E0D0E0209791F0E3
S1131270950140E050E0812C912C5E016701E02E45
S11312808201B101C3010E948B07CE010E943B0879
S113129081E001C08FEFDF91CF911F910F91FF90FB
S11312A0EF90DF90CF90BF90AF909F908F907F9002
S11312B06F905F904F903F902F900895EF92FF9220
S11312C00F930F2EF2E6EF2EF6E0FF2EF02D00E046
S11312D020E030E045E550E066E770E08DEB98E013
S11312E00E940A09813081F4F8948FEF9FEF909364
S11312F065068093640681E080936B0610926E0607
S113130010926D060E941005809160000F91FF906D
S1131310EF900895809161068F5F80936106089530
S1131320DF92EF92FF920F931F93CF93DF938091FD
S1131330610681119DC0E0906D06F0906E068FEFFE
S1131340E81AF80AF0926E06E0926D06E114F104D0
S1131350B9F4809185069091860620918306309198
S113136084063093860620938506909384068093A2
S11313708306809167068F5F809367060E946207E9
S11313808091640690916506E816F90628F4D12C3C
S113139053C0DD24D39401C0D12CE0918506F09193
S11313A086068081811107C08FEF9FEF90936506B9
S11313B08093640641C0E0918506F091860605801D
S11313C0F681E02DC681D7818A819B81E816F906D2
S11313D028F490936506809364062EC08E010E5FF8
S11313E01F4FC8010E9413048C899D89892B21F009
S11313F0CE010C960E9413048E8990916C06981766
S113140010F480936C0690E09C01220F331F220F8E
S1131410331F220F331F820F931FB8018756994F32
S11314200E94C1039E89E091C606F091C706868991
S1131430981708F0AECFB1CFE091C606F091C70679
S1131440868990E0FC01EE0FFF1FEE0FFF1FEE0FE9
S1131450FF1F8E0F9F1FFC01E756F94F80818230DA
S113146010F0DD24D3948091680681110CC00DC066
S11314708091690690916A06019690936A0680931A
S11314806906D12C02C0DD24D3948D2DDF91CF9138
S11314901F910F91FF90EF90DF9008950F931F938A
S11314A0CF93DF930FB6F8940F9280916106815029
S11314B0809361068091610681115CC080916F0602
S11314C0811133C05AC0E0917F06F0918006C68135
S11314D0D781CE010C960E9413048E010E5F1F4F1C
S11314E0C8010E9413048E8990916C06981710F419
S11314F080936C0690E09C01220F331F220F331F50
S1131500220F331F820F931FB8018756994F0E94F1
S1131510C1039E89E091C606F091C7068689981793
S113152030F081E08093680602C0C0E0D0E0809192
S11315307A068111C8CFCD2B11F00E946207C091A9
S11315406906D0916A06209769F00E949009882361
S113155019F081E0809368062197B9F710926A0622
S11315601092690680916806882331F00E943F0535
S113157081E003C080E001C080E00F900FBEDF91E6
S1131580CF911F910F91089580916106882321F0D6
S113159081E08093680608951092680620916C0695
S11315A001C02150822F90E0FC01EE0FFF1FEE0FCF
S11315B0FF1FEE0FFF1FE80FF91FE756F94F3081A9
S11315C0332379F3AC01440F551F440F551F440FC7
S11315D0551F480F591FDF010180F281E02D028061
S11315E0F381E02D1296FC93EE9311974456594FD4
S11315F0E417F50729F442815381FD0152834183A5
S1131600FC01EE0FFF1FEE0FFF1FEE0FFF1F8E0FEB
S11316109F1FFC01E756F94F0180F281E02D86817E
S113162097819093C7068093C60620936C0608950D
S1131630CF93DF93EB016091C6067091C706645F98
S11316407F4F0E94E20361E0CE010E94C608DF9151
S1131650CF9108950F931F93CF93DF93DC011596D9
S1131660ED91FC911697C681D7818E01045F1F4FBF
S1131670C8010E9413048091610681111CC00A50A4
S11316801109C8010E9413048E8990916C06981761
S113169010F480936C0690E09C01220F331F220FFC
S11316A0331F220F331F820F931FB8018756994FA0
S11316B00E94C10305C0B8018AE796E00E94C103F5
S11316C09E89E091C606F091C7068689891720F4A1
S11316D081E08093680601C080E0DF91CF911F9183
S11316E00F91089520916706FC01208320916D06D7
S11316F030916E06328321830895CF93DF930FB622
S1131700F8940F9240916D0650916E06EC01298178
S11317103A81DA01A21BB30BF881E0916706FE1748
S113172041F04217530728F0FB011182108281E037
S113173011C0EB0128813981A217B30740F42A1B99
S11317403B0B398328830E94720B80E003C019820B
S1131750188281E00F900FBEDF91CF91089581E050
S10D1760809368060895F894FFCF03
S113176A04427574746F6E205072657373656400F5
S10F177A7461736B310049444C4500005D
S9030000FC
