:100000000C942A000C9447000C9447000C94470071
:100010000C9447000C9447000C9447000C947C030C
:100020000C9447000C9447000C9447000C94470034
:100030000C9447000C9447000C9447000C94470024
:100040000C9447000C9447000C9447000C94470014
:100050000C94470011241FBECFE5D8E0DEBFCDBF12
:1000600010E0A0E6B0E0EAE9FEE002C005900D92E3
:10007000A037B107D9F726E0A0E7B0E001C01D9294
:10008000AB3BB207E1F70E94F4010C944B070C94D0
:100090000000633051F118F4623041F0089564308B
:1000A00009F442C0653009F45EC00895413069F436
:1000B0004AB321E030E0B90102C0660F771F8A958C
:1000C000E2F7CB01842B8ABB089541116AC04AB381
:1000D00021E030E0B90102C0660F771F8A95E2F790
:1000E000CB01809584238ABB0895413069F447B3DE
:1000F00021E030E0B90102C0660F771F8A95E2F770
:10010000CB01842B87BB089541114BC047B321E03D
:1001100030E0B90102C0660F771F8A95E2F7CB0184
:100120008095842387BB0895413069F444B321E06E
:1001300030E0B90102C0660F771F8A95E2F7CB0164
:10014000842B84BB089541112CC044B321E030E0DE
:10015000B90102C0660F771F8A95E2F7CB0180953F
:10016000842384BB0895413069F441B321E030E039
:10017000B90102C0660F771F8A95E2F7CB01842B85
:1001800081BB089541110DC041B321E030E0B901B8
:1001900002C0660F771F8A95E2F7CB018095842312
:1001A00081BB08956330B1F018F4623031F00895E6
:1001B0006430E9F0653041F108954BB321E030E05F
:1001C000B90102C0660F771F8A95E2F7CB01842739
:1001D0008BBB089548B321E030E0B90102C0660F3F
:1001E000771F8A95E2F7CB01842788BB089545B332
:1001F00021E030E0B90102C0660F771F8A95E2F76F
:10020000CB01842785BB089542B321E030E0B901DA
:1002100002C0660F771F8A95E2F7CB01842782BB65
:100220000895CF93DF93EC010E94A70580917000A1
:1002300090917100892B31F485E790E090937100E3
:10024000809370002097C9F08091720090917300A4
:100250009E01280F391F2B3D45E0340788F4821793
:10026000930788F4C0917000D0917100C80FD91F16
:10027000309373002093720008C0C0E0D0E005C046
:10028000C0E0D0E002C0C0E0D0E00E946B06CE012A
:10029000DF91CF9108950895FC01039692838183A5
:1002A0002FEF3FEF34832383968385839087878363
:1002B00010820895FC01118610860895CF93DF9374
:1002C0009C01FB01DC011196CD91DC911297D38347
:1002D000C2838C819D81958384838C819D81DC0187
:1002E00013967C936E9312977D836C83318720875E
:1002F000F90180818F5F8083DF91CF910895CF9343
:10030000DF93EB01488159814F3F2FEF520721F4D2
:10031000FC01A781B0850DC0DC01139601C0DF018F
:100320001296ED91FC91139720813181421753076A
:10033000B0F71296ED91FC911397FB83EA83D58376
:10034000C483BD83AC831396DC93CE9312979987B5
:100350008887FC0120812F5F2083DF91CF91089552
:10036000CF93DF93FC01A085B185C281D3818481C5
:1003700095819D838C83C481D581828193819B8368
:100380008A8311968D919C911297E817F90731F4A1
:100390008481958112969C938E9311971186108675
:1003A0008C9181508C938C91DF91CF91089565E071
:1003B00080E00E94D20084EF91E00E94E106F7CF36
:1003C00065E081E00E94D20088EE93E00E94E106A1
:1003D000F7CF41E065E080E00E94490041E065E040
:1003E00081E00E9449000895EF92FF920F930E94CE
:1003F000E9010F2EF2E5EF2EF6E0FF2EF02D03E0DF
:1004000020E030E045E550E061E670E087ED91E006
:100410000E9427050F2EF0E5EF2EF6E0FF2EF02DBF
:1004200001E020E030E045E550E066E670E080EE77
:1004300091E00E9427050E947B0580E090E00F91EB
:10044000FF90EF9008951BBC8CE78ABD8BE08EBDBA
:1004500089B7806189BF089531E1FC01308331970C
:1004600022E220833197A3E3A08331976083319701
:10047000708331971082319760E8608331971082E2
:10048000319762E06083319763E06083319764E085
:100490006083319765E06083319766E060833197D0
:1004A00067E06083319768E06083319769E060833B
:1004B000319760E1608331973083319732E1308347
:1004C000319733E13083319734E13083319735E12F
:1004D0003083319736E13083319737E1308331977C
:1004E00038E13083319739E13083319730E230831E
:1004F000319731E2308331972083319723E2208393
:100500003197408331975083319726E2208331978A
:1005100027E22083319728E22083319729E2208344
:10052000319720E32083319721E320838697089534
:100530000E942302A091B906B091BA06CD91CDBF19
:10054000DD91DEBFFF91EF91DF91CF91BF91AF9130
:100550009F918F917F916F915F914F913F912F91DB
:100560001F910F91FF90EF90DF90CF90BF90AF90D1
:100570009F908F907F906F905F904F903F902F90C3
:100580001F900F900FBE0F90089581E008950F9275
:100590000FB6F8940F921F9211242F923F924F9210
:1005A0005F926F927F928F929F92AF92BF92CF9203
:1005B000DF92EF92FF920F931F932F933F934F93EE
:1005C0005F936F937F938F939F93AF93BF93CF93DB
:1005D000DF93EF93FF93A091B906B091BA060DB6E1
:1005E0000D920EB60D920E94F706A091B906B09139
:1005F000BA06CD91CDBFDD91DEBFFF91EF91DF91C6
:10060000CF91BF91AF919F918F917F916F915F91AA
:100610004F913F912F911F910F91FF90EF90DF909D
:10062000CF90BF90AF909F908F907F906F905F9092
:100630004F903F902F901F900F900FBE0F900895F6
:100640000F920FB6F8940F921F9211242F923F929F
:100650004F925F926F927F928F929F92AF92BF92D2
:10066000CF92DF92EF92FF920F931F932F933F93BE
:100670004F935F936F937F938F939F93AF93BF93AA
:10068000CF93DF93EF93FF93A091B906B091BA0691
:100690000DB60D920EB60D920E94AD0581110E940D
:1006A000F706A091B906B091BA06CD91CDBFDD9104
:1006B000DEBFFF91EF91DF91CF91BF91AF919F91FD
:1006C0008F917F916F915F914F913F912F911F91EA
:1006D0000F91FF90EF90DF90CF90BF90AF909F90E1
:1006E0008F907F906F905F904F903F902F901F90D2
:1006F0000F900FBE0F9008950E9420031895E0916F
:100700007806F09179068081811107C08FEF9FEF05
:1007100090935806809357060895E0917806F091DB
:1007200079060580F681E02D8081918190935806AD
:10073000809357060895CF93DF93EC018F89988DAE
:100740000E944B01CE010E944B01DF91CF91089591
:100750006F927F928F929F92AF92BF92CF92DF92D1
:10076000EF920F931F93CF93DF93CDB7DEB74C017A
:10077000D50157968D919C915897215031093C0194
:10078000620E731E6115710589F416C0822F90E008
:10079000FB01E80FF91F3081D501A80FB91F599649
:1007A0003C938081882329F02F5F01C020E028300E
:1007B00068F3F50110A203C0D50159961C92B4E06C
:1007C000BE1518F46894EE24E2F8F501E68AC50136
:1007D00002960E945A01C5010C960E945A01D50149
:1007E0001996BC92AE92189785E090E08E19910907
:1007F0001D969C938E931C975396BC92AE925297E3
:1008000084E0F501B196DF011D928A95E9F7F501C3
:1008100015A2A801B401C3010E942C02D5018D9339
:100820009C93C114D10419F0F601B182A082DF912A
:10083000CF911F910F91EF90DF90CF90BF90AF902D
:100840009F908F907F906F900895CF93C0E010C0DD
:100850008C2F90E09C01220F331F220F331F220F99
:10086000331F820F931F8457994F0E944C01CF5F13
:10087000C53070F383E896E00E944C018AE796E069
:100880000E944C018DE696E00E944C0184E696E0C1
:100890000E944C0183E896E0909379068093780655
:1008A0008AE796E09093770680937606CF91089535
:1008B000CF93DF93EC010FB6F8940F92809162060C
:1008C0008F5F809362068091B9069091BA06892B5A
:1008D00059F4D093BA06C093B9068091620681306C
:1008E00099F40E94250410C080915E0681110CC00D
:1008F000E091B906F091BA0696898E89891720F0A1
:10090000D093BA06C093B906809159068F5F809341
:1009100059068E8990915F06981710F480935F06B0
:1009200090E09C01220F331F220F331F220F331F31
:10093000820F931FBE016E5F7F4F8457994F0E94B5
:100940005E010F900FBE80915E06882351F0E0910A
:10095000B906F091BA0696898E89981710F40E940C
:10096000C702DF91CF910895CF93DF931CC00FB6DC
:10097000F8940F92E0916906F0916A06C681D781DA
:10098000CE0102960E94B001809162068150809350
:100990006206809163068150809363060F900FBEBC
:1009A000CE010E949B03809163068111E0CFDF910D
:1009B000CF9108950E94B40480918C068230D0F3C8
:1009C0000E94C702F7CF0F931F93CF93DF93EC01E1
:1009D00000916006109161068091B9069091BA0667
:1009E00002960E94B001C00FD11FE091B906F091AC
:1009F000BA06D383C283C017D10768F46091B906E1
:100A00007091BA0680917606909177066E5F7F4F5F
:100A10000E947F0117C06091B9067091BA0680915B
:100A20007806909179066E5F7F4F0E947F018091DA
:100A3000570690915806C817D90720F4D093580646
:100A4000C0935706DF91CF911F910F9108952F9278
:100A50003F924F925F926F927F928F929F92AF924E
:100A6000BF92CF92DF92EF92FF920F931F93CF939B
:100A7000DF933C011B015A012901CA010E941101A7
:100A80006C01892B71F086E290E00E941101EC016B
:100A9000892B19F0D88ECF8A06C0C6010E944B015F
:100AA00002C0C0E0D0E0209791F0950140E050E016
:100AB000812C912C5E016701E02E8201B101C301FE
:100AC0000E94A803CE010E94580481E001C08FEF6C
:100AD000DF91CF911F910F91FF90EF90DF90CF901A
:100AE000BF90AF909F908F907F906F905F904F904E
:100AF0003F902F900895EF92FF920F930F2EF5E500
:100B0000EF2EF6E0FF2EF02D00E020E030E045E58E
:100B100050E06BE670E08AED94E00E94270581309A
:100B200081F4F8948FEF9FEF9093580680935706C7
:100B300081E080935E0610926106109260060E942A
:100B40009802809160000F91FF90EF90089580913E
:100B500054068F5F809354060895DF92EF92FF92C0
:100B60000F931F93CF93DF938091540681119DC003
:100B7000E0906006F09061068FEFE81AF80AF092B4
:100B80006106E0926006E114F104B9F48091780600
:100B90009091790620917606309177063093790608
:100BA00020937806909377068093760680915A0674
:100BB0008F5F80935A060E947F0380915706909121
:100BC0005806E816F90628F4D12C53C0DD24D39436
:100BD00001C0D12CE0917806F091790680818111D5
:100BE00007C08FEF9FEF909358068093570641C040
:100BF000E0917806F09179060580F681E02DC681B6
:100C0000D7818A819B81E816F90628F490935806CB
:100C1000809357062EC08E010E5F1F4FC8010E94A1
:100C2000B0018C899D89892B21F0CE010C960E9400
:100C3000B0018E8990915F06981710F480935F063B
:100C400090E09C01220F331F220F331F220F331F0E
:100C5000820F931FB8018457994F0E945E019E89AD
:100C6000E091B906F091BA068689981708F0AECFE0
:100C7000B1CFE091B906F091BA06868990E0FC0107
:100C8000EE0FFF1FEE0FFF1FEE0FFF1F8E0F9F1FB8
:100C9000FC01E457F94F8081823010F0DD24D394B9
:100CA00080915B0681110CC00DC080915C06909113
:100CB0005D06019690935D0680935C06D12C02C080
:100CC000DD24D3948D2DDF91CF911F910F91FF9053
:100CD000EF90DF9008950F931F93CF93DF930FB69C
:100CE000F8940F928091540681508093540680911D
:100CF000540681115CC080916206811133C05AC0D4
:100D0000E0917206F0917306C681D781CE010C96F0
:100D10000E94B0018E010E5F1F4FC8010E94B001FA
:100D20008E8990915F06981710F480935F0690E08B
:100D30009C01220F331F220F331F220F331F820FFC
:100D4000931FB8018457994F0E945E019E89E091DC
:100D5000B906F091BA068689981730F081E0809341
:100D60005B0602C0C0E0D0E080916D068111C8CF63
:100D7000CD2B11F00E947F03C0915C06D0915D06DF
:100D8000209769F00E94AD05882319F081E08093D7
:100D90005B062197B9F710925D0610925C06809170
:100DA0005B06882331F00E94C70281E003C080E027
:100DB00001C080E00F900FBEDF91CF911F910F9186
:100DC0000895CF93DF93EC01892B49F00E94A7058A
:100DD00060E0CE010E94E3040E946B0601C080E047
:100DE000811102C00E94C702DF91CF9108958091C6
:100DF0005406882321F081E080935B0608951092C9
:100E00005B0620915F0601C02150822F90E0FC011B
:100E1000EE0FFF1FEE0FFF1FEE0FFF1FE80FF91F72
:100E2000E457F94F3081332379F3AC01440F551F58
:100E3000440F551F440F551F480F591FDF010180F4
:100E4000F281E02D0280F381E02D1296FC93EE9367
:100E500011974157594FE417F50729F442815381FF
:100E6000FD0152834183FC01EE0FFF1FEE0FFF1FB8
:100E7000EE0FFF1F8E0F9F1FFC01E457F94F0180FB
:100E8000F281E02D868197819093BA068093B9060E
:0A0E900020935F060895F894FFCF49
:100E9A00044C454431004C4544320049444C450019
:00000001FF
