S01500004672656552544F53204C4142332E7372656323
S11300000C942A000C9447000C9447000C9447006D
S11300100C9447000C9447000C9447000C94F10591
S11300200C9447000C9447000C9447000C94470030
S11300300C9447000C9447000C9447000C94470020
S11300400C9447000C9447000C9447000C94470010
S11300500C94470011241FBECFE5D8E0DEBFCDBF0E
S113006010E0A0E6B0E0EEE6F9E102C005900D92E2
S1130070A039B107D9F726E0A0E9B0E001C01D928C
S1130080AF3DB207E1F70E9460040C94B50C0C94E8
S11300900000633051F118F4623041F00895643087
S11300A009F442C0653009F45EC00895413069F432
S11300B04AB321E030E0B90102C0660F771F8A9588
S11300C0E2F7CB01842B8ABB089541116AC04AB37D
S11300D021E030E0B90102C0660F771F8A95E2F78C
S11300E0CB01809584238ABB0895413069F447B3DA
S11300F021E030E0B90102C0660F771F8A95E2F76C
S1130100CB01842B87BB089541114BC047B321E039
S113011030E0B90102C0660F771F8A95E2F7CB0180
S11301208095842387BB0895413069F444B321E06A
S113013030E0B90102C0660F771F8A95E2F7CB0160
S1130140842B84BB089541112CC044B321E030E0DA
S1130150B90102C0660F771F8A95E2F7CB0180953B
S1130160842384BB0895413069F441B321E030E035
S1130170B90102C0660F771F8A95E2F7CB01842B81
S113018081BB089541110DC041B321E030E0B901B4
S113019002C0660F771F8A95E2F7CB01809584230E
S11301A081BB0895633051F118F4623041F0089531
S11301B0643009F442C0653009F45EC008954130EA
S11301C069F44BB321E030E0B90102C0660F771F38
S11301D08A95E2F7CB01842B8BBB089541116AC049
S11301E04BB321E030E0B90102C0660F771F8A9556
S11301F0E2F7CB01809584238BBB0895413069F4E9
S113020048B321E030E0B90102C0660F771F8A9538
S1130210E2F7CB01842B88BB089541114BC048B34E
S113022021E030E0B90102C0660F771F8A95E2F73A
S1130230CB018095842388BB0895413069F445B38C
S113024021E030E0B90102C0660F771F8A95E2F71A
S1130250CB01842B85BB089541112CC045B321E00B
S113026030E0B90102C0660F771F8A95E2F7CB012F
S11302708095842385BB0895413069F442B321E01D
S113028030E0B90102C0660F771F8A95E2F7CB010F
S1130290842B82BB089541110DC042B321E030E0AC
S11302A0B90102C0660F771F8A95E2F7CB018095EA
S11302B0842382BB0895833059F018F4823031F0DE
S11302C00895843039F0853039F008956BBB089572
S11302D068BB089565BB089562BB08956330A1F0BF
S11302E018F4623031F031C06430C9F0653011F176
S11302F02CC029B330E0A90102C0559547958A95D1
S1130300E2F7CA018170089526B330E0A90102C062
S1130310559547958A95E2F7CA018170089523B3EC
S113032030E0A90102C0559547958A95E2F7CA01C4
S11303308170089520B330E0A90102C05595479516
S11303408A95E2F7CA018170089580E008958330A8
S113035081F018F4823031F00895843089F08530CA
S1130360B1F008958AB38F708ABB8AB3682B6ABBD5
S113037008958AB38F708ABB8AB3682B6ABB0895C9
S11303808AB38F708ABB8AB3682B6ABB08958AB319
S11303908F708ABB8AB3682B6ABB0895833081F05F
S11303A018F4823031F00895843089F08530B1F04A
S11303B008958BB38F708BBB8BB3682B6BBB089585
S11303C088B38F7088BB88B3682B68BB089585B3E6
S11303D08F7085BB85B3682B65BB089582B38F701E
S11303E082BB82B3682B62BB0895CF93DF93EC0189
S11303F00E946D0A8091900090919100892B31F4B4
S113040085E990E090939100809390002097C9F043
S113041080919200909193009E01280F391F2B3DEB
S113042045E0340788F48217930788F4C09190005C
S1130430D0919100C80FD91F30939300209392005C
S113044008C0C0E0D0E005C0C0E0D0E002C0C0E019
S1130450D0E00E94310BCE01DF91CF910895089531
S113046040E062E080E00E94490040E062E081E018
S11304700E94490040E062E082E00E94490040E0BE
S113048062E083E00E94490041E062E084E00E946F
S1130490490041E062E085E00E94490041E062E0F9
S11304A086E00E94490041E062E087E00E94490042
S11304B06FEF82E00E945B0108950F931F93CF9327
S11304C0DF9300D0CDB7DEB7198284E08A838A83B4
S11304D010E000E03AC08A8140E062E00E94D2006D
S11304E0198228C0898162E00E946E0181111FC0B7
S11304F0E9812E2F30E08A81E82FF0E0CF010497C4
S1130500F901EE0FFF1FEE0FFF1FEF59FF4FE80F2A
S1130510F91F1081898162E00E946E018823D1F362
S11305208FE19EE40197F1F700C0000001E08981AA
S11305308F5F898389818430A8F28A8141E062E0F7
S11305400E94D2008A818F5F8A838A81883018F260
S1130550013009F01FEF812F0F900F90DF91CF91A1
S11305601F910F910895CF93C82F40E065E080E07C
S11305700E94D20040E065E081E00E94D2006C2F2E
S1130580607F85E00E94CE0141E065E082E00E9448
S1130590D2008FE99FE00197F1F700C0000040E02E
S11305A065E082E00E94D200809170068130B9F447
S11305B090E1C99FB001112485E00E94CE0141E081
S11305C065E082E00E94D2008FE99FE00197F1F795
S11305D000C0000040E065E082E00E94D2008FE9A4
S11305E09FE00197F1F700C00000CF9108951092A9
S11305F0700641E065E080E00E94490041E065E06A
S113060081E00E94490041E065E082E00E944900E7
S113061060EF85E00E94A7018FE59AEE0197F1F75C
S113062000C0000080E20E94B30280E20E94B30294
S113063080E80E94B3028FE99FE00197F1F700C0C0
S1130640000080E00E94B30280EE0E94B3028FE9B2
S11306509FE00197F1F700C0000080E00E94B30220
S113066080E10E94B3028FE295E70197F1F700C0A1
S1130670000080E00E94B30280E20E94B30281E0A5
S1130680809370060895CF93C82F41E065E080E021
S11306900E94D20040E065E081E00E94D2006C2F0D
S11306A0607F85E00E94CE0141E065E082E00E9427
S11306B0D2008FE99FE00197F1F700C0000040E00D
S11306C065E082E00E94D20090E1C99FB00111244C
S11306D085E00E94CE0141E065E082E00E94D20004
S11306E08FE99FE00197F1F700C0000040E065E06A
S11306F082E00E94D200CF9108950F931F93CF936D
S11307008C01C0E003C00E944303CF5FF801EC0FEB
S1130710F11D80818111F7CFCF911F910F91089521
S1130720FC010396928381832FEF3FEF348323836D
S1130730968385839087878310820895FC011186B0
S113074010860895CF93DF939C01FB01DC01119681
S1130750CD91DC911297D383C2838C819D81958343
S113076084838C819D81DC0113967C936E93129714
S11307707D836C8331872087F90180818F5F80833B
S1130780DF91CF910895CF93DF93EB014881598195
S11307904F3F2FEF520721F4FC01A781B0850DC014
S11307A0DC01139601C0DF011296ED91FC911397C1
S11307B02081318142175307B0F71296ED91FC91D5
S11307C01397FB83EA83D583C483BD83AC831396D9
S11307D0DC93CE93129799878887FC0120812F5F41
S11307E02083DF91CF910895CF93DF93FC01A085FF
S11307F0B185C281D381848195819D838C83C48199
S1130800D581828193819B838A8311968D919C915A
S11308101297E817F90731F48481958112969C9315
S11308208E931197118610868C9181508C938C91A4
S1130830DF91CF910895CF93DF931F92CDB7DEB7A9
S11308400E945D0289838F3F61F020E04FEF5FEFEC
S1130850BE016F5F7F4F80917206909173060E9474
S1130860240784E690E00E94A70BEACFCF93DF939E
S11308701F92CDB7DEB74FEF5FEFBE016F5F7F4FC3
S113088080917206909173060E94B607813099F7A1
S1130890809171068F5F809371068B3040F081E008
S11308A00E94B30281E790E00E947D03E4CF898136
S11308B00E944303E0CF0E9430020E94F702089591
S11308C0EF92FF920F930E945B0440E061E08AE0A4
S11308D00E94FF0690937306809372060F2EF6E72C
S11308E0EF2EF6E0FF2EF02D03E020E030E045E5AA
S11308F050E066E770E08BE194E00E94ED090F2E72
S1130900F4E7EF2EF6E0FF2EF02D02E020E030E0D9
S113091045E550E062E870E086E394E00E94ED096A
S11309200E94410A80E090E00F91FF90EF900895BB
S11309301BBC8CE78ABD8BE08EBD89B7806189BF03
S1130940089531E1FC013083319722E2208331970D
S1130950A3E3A0833197608331977083319710822A
S1130960319760E8608331971082319762E0608349
S1130970319763E06083319764E06083319765E089
S11309806083319766E06083319767E060833197D5
S113099068E06083319769E06083319760E1608348
S11309A031973083319732E13083319733E13083AB
S11309B0319734E13083319735E13083319736E133
S11309C03083319737E13083319738E13083319781
S11309D039E13083319730E23083319731E230832B
S11309E031972083319723E22083319740833197D5
S11309F05083319726E22083319727E22083319771
S1130A0028E22083319729E22083319720E3208351
S1130A10319721E32083869708950E949804A0913A
S1130A20DD06B091DE06CD91CDBFDD91DEBFFF9135
S1130A30EF91DF91CF91BF91AF919F918F917F9172
S1130A406F915F914F913F912F911F910F91FF9063
S1130A50EF90DF90CF90BF90AF909F908F907F905A
S1130A606F905F904F903F902F901F900F900FBE0C
S1130A700F90089581E008950F920FB6F8940F92A5
S1130A801F9211242F923F924F925F926F927F9206
S1130A908F929F92AF92BF92CF92DF92EF92FF928A
S1130AA00F931F932F933F934F935F936F937F9372
S1130AB08F939F93AF93BF93CF93DF93EF93FF9362
S1130AC0A091DD06B091DE060DB60D920EB60D9224
S1130AD00E94BD0BA091DD06B091DE06CD91CDBF85
S1130AE0DD91DEBFFF91EF91DF91CF91BF91AF9187
S1130AF09F918F917F916F915F914F913F912F9132
S1130B001F910F91FF90EF90DF90CF90BF90AF9027
S1130B109F908F907F906F905F904F903F902F9019
S1130B201F900F900FBE0F9008950F920FB6F89478
S1130B300F921F9211242F923F924F925F926F92C5
S1130B407F928F929F92AF92BF92CF92DF92EF9259
S1130B50FF920F931F932F933F934F935F936F9342
S1130B607F938F939F93AF93BF93CF93DF93EF9331
S1130B70FF93A091DD06B091DE060DB60D920EB680
S1130B800D920E94730A81110E94BD0BA091DD0693
S1130B90B091DE06CD91CDBFDD91DEBFFF91EF9127
S1130BA0DF91CF91BF91AF919F918F917F916F9181
S1130BB05F914F913F912F911F910F91FF90EF9073
S1130BC0DF90CF90BF90AF909F908F907F906F9069
S1130BD05F904F903F902F901F900F900FBE0F90FB
S1130BE008950E94950518950FB6F8940F92FC018C
S1130BF0828D811102C081E001C080E00F900FBEA0
S1130C0008950FB6F8940F92FC01228D838D28135A
S1130C1002C081E001C080E00F900FBE08950F93E1
S1130C201F93CF93DF93EC01042F1A8D4C8D442333
S1130C30B9F1011116C050E08A819B810E94AC0C6D
S1130C402C8D8A819B81820F911D9B838A832C81A9
S1130C503D818217930720F1888199819B838A8340
S1130C601FC050E08E819F810E94AC0C8C8D90E05F
S1130C709195819591092E813F81280F391F3F83DA
S1130C802E83488159812417350730F42C813D8106
S1130C90820F931F9F838E83023011F41111115020
S1130CA01F5F1A8F80E0DF91CF911F910F910895FC
S1130CB0FC01448D4423A9F050E026813781240FA0
S1130CC0351F37832683848195812817390720F0BF
S1130CD08081918197838683CB01668177810E948D
S1130CE0AC0C08951F93CF93DF93EC010FB6F894E7
S1130CF00F921E8D0BC08989882351F0CE01419635
S1130D000E94230C81110E94A80C115011169CF30F
S1130D108FEF8E8F0F900FBE0FB6F8940F921D8D2C
S1130D200BC08885882351F0CE0108960E94230CBD
S1130D3081110E94A80C115011169CF38FEF8D8F16
S1130D400F900FBEDF91CF911F910895CF93DF9342
S1130D50EC010FB6F8940F92E881F9818B8D2C8DFC
S1130D6090E030E0829FA001839F500D929F500D30
S1130D7011244E0F5F1F5D834C831A8EFB83EA831D
S1130D800197289FA001299F500D389F500D1124D1
S1130D90CF01840F951F9F838E838FEF8D8F8E8F4E
S1130DA061110CC08885882389F0CE0108960E94C1
S1130DB0230C882359F00E943C0508C0CE010896F4
S1130DC00E949003CE0141960E9490030F900FBEA3
S1130DD081E0DF91CF9108950F931F93F801611182
S1130DE003C01183008302C051834083838F648FC7
S1130DF061E0CF010E94A6061F910F910895DF9232
S1130E00EF92FF920F931F93CF93DF93F82EE62E6A
S1130E10D42E869FC00111244F960E94F501EC0147
S1130E20009749F08C012D2DAC01415E5F4F6E2D72
S1130E308F2D0E94EC06CE01DF91CF911F910F916F
S1130E40FF90EF90DF900895CF92DF92EF92FF92A0
S1130E500F931F93CF93DF9300D000D01F92CDB791
S1130E60DEB78C017B015D834C83C22ED12C0FB67F
S1130E70F8940F92F801928D838D981718F0F2E090
S1130E80CF1219C04C2DB701C8010E940F06F801FA
S1130E909189992349F0C80141960E94230C882323
S1130EA031F00E943C0503C081110E943C050F9063
S1130EB00FBE81E04DC08C819D81892B21F40F9060
S1130EC00FBE80E045C0D11006C0CE0101960E943D
S1130ED06B0CDD24D3940F900FBE0E946D0A0FB6E5
S1130EE0F8940F92F801858D8F3F09F4158EF8015F
S1130EF0868D8F3F09F4168E0F900FBEBE016C5F76
S1130F007F4FCE0101960E94760C81111BC0C8014F
S1130F100E940106882381F06C817D81C8010896B6
S1130F200E94110CC8010E9472060E94310B8111AB
S1130F309ECF0E943C059BCFC8010E9472060E946E
S1130F40310B95CFC8010E9472060E94310B80E0DC
S1130F500F900F900F900F900F90DF91CF911F91F2
S1130F600F91FF90EF90DF90CF900895CF92DF9292
S1130F70EF92FF920F931F93CF93DF9300D000D093
S1130F801F92CDB7DEB78C016B015D834C83E12CDE
S1130F900FB6F8940F92F801F28CFF20A9F0B60175
S1130FA0C8010E945806FA94F801F28E80858823BD
S1130FB039F0C80108960E94230C81110E943C0557
S1130FC00F900FBE81E053C08C819D81892B21F449
S1130FD00F900FBE80E04BC0E11006C0CE01019619
S1130FE00E946B0CEE24E3940F900FBE0E946D0AD6
S1130FF00FB6F8940F92F801858D8F3F09F4158E82
S1131000F801868D8F3F09F4168E0F900FBEBE0136
S11310106C5F7F4FCE0101960E94760C81111BC03C
S1131020C8010E94F405882381F06C817D81C80188
S113103041960E94110CC8010E9472060E94310B55
S11310408111A6CF0E943C05A3CFC8010E9472065D
S11310500E94310B9DCFC8010E9472060E94310B81
S1131060C8010E94F405882309F492CF80E00F9010
S11310700F900F900F900F90DF91CF911F910F91D0
S1131080FF90EF90DF90CF900895E0919C06F0914F
S11310909D068081811107C08FEF9FEF90937C069E
S11310A080937B060895E0919C06F0919D0605804F
S11310B0F681E02D8081918190937C0680937B065C
S11310C00895CF93DF93EC018F89988D0E942F02AE
S11310D0CE010E942F02DF91CF9108956F927F92EB
S11310E08F929F92AF92BF92CF92DF92EF920F9323
S11310F01F93CF93DF93CDB7DEB74C01D50157963D
S11311008D919C915897215031093C01620E731EB8
S11311106115710589F416C0822F90E0FB01E80F78
S1131120F91F3081D501A80FB91F59963C938081CE
S1131130882329F02F5F01C020E0283068F3F501EF
S113114010A203C0D50159961C92B4E0BE1518F440
S11311506894EE24E2F8F501E68AC50102960E943D
S11311609E03C5010C960E949E03D5011996BC925C
S1131170AE92189785E090E08E1991091D969C9384
S11311808E931C975396BC92AE92529784E0F501CD
S1131190B196DF011D928A95E9F7F50115A2A80120
S11311A0B401C3010E94A104D5018D939C93C11481
S11311B0D10419F0F601B182A082DF91CF911F9181
S11311C00F91EF90DF90CF90BF90AF909F908F9052
S11311D07F906F900895CF93C0E010C08C2F90E063
S11311E09C01220F331F220F331F220F331F820F44
S11311F0931F8055994F0E949003CF5FC53070F3C1
S113120087EA96E00E9490038EE996E00E9490039C
S113121081E996E00E94900388E896E00E9490039A
S113122087EA96E090939D0680939C068EE996E06B
S113123090939B0680939A06CF910895CF93DF9362
S1131240EC010FB6F8940F92809186068F5F80931D
S113125086068091DD069091DE06892B59F4D093A1
S1131260DE06C093DD0680918606813099F40E94E3
S1131270EB0810C08091820681110CC0E091DD065C
S1131280F091DE0696898E89891720F0D093DE06C8
S1131290C093DD0680917D068F5F80937D068E89E5
S11312A090918306981710F48093830690E09C0134
S11312B0220F331F220F331F220F331F820F931F5E
S11312C0BE016E5F7F4F8055994F0E94A2030F901D
S11312D00FBE80918206882351F0E091DD06F091E3
S11312E0DE0696898E89981710F40E943C05DF91DA
S11312F0CF910895CF93DF931CC00FB6F8940F924B
S1131300E0918D06F0918E06C681D781CE010296BA
S11313100E94F40380918606815080938606809112
S113132087068150809387060F900FBECE010E94DE
S11313306108809187068111E0CFDF91CF910895F4
S11313400E947A098091B0068230D0F30E943C0555
S1131350F7CF0F931F93CF93DF93EC010091840693
S1131360109185068091DD069091DE0602960E941A
S1131370F403C00FD11FE091DD06F091DE06D383A4
S1131380C283C017D10768F46091DD067091DE0650
S113139080919A0690919B066E5F7F4F0E94C303D3
S11313A017C06091DD067091DE0680919C069091D5
S11313B09D066E5F7F4F0E94C30380917B069091D0
S11313C07C06C817D90720F4D0937C06C0937B060B
S11313D0DF91CF911F910F9108952F923F924F92D9
S11313E05F926F927F928F929F92AF92BF92CF92B1
S11313F0DF92EF92FF920F931F93CF93DF933C0101
S11314001B015A012901CA010E94F5016C01892BB3
S113141071F086E290E00E94F501EC01892B19F04D
S1131420D88ECF8A06C0C6010E942F0202C0C0E037
S1131430D0E0209791F0950140E050E0812C912C70
S11314405E016701E02E8201B101C3010E946E08B2
S1131450CE010E941E0981E001C08FEFDF91CF9180
S11314601F910F91FF90EF90DF90CF90BF90AF90BE
S11314709F908F907F906F905F904F903F902F90B0
S11314800895EF92FF920F930F2EF9E7EF2EF6E0F7
S1131490FF2EF02D00E020E030E045E550E06BE861
S11314A070E080EA99E00E94ED09813081F4F894BB
S11314B08FEF9FEF90937C0680937B0681E080936F
S11314C0820610928506109284060E940D05809172
S11314D060000F91FF90EF900895809178068F5FE0
S11314E0809378060895DF92EF92FF920F931F93F3
S11314F0CF93DF938091780681119DC0E09084069C
S1131500F09085068FEFE81AF80AF0928506E092CB
S11315108406E114F104B9F480919C0690919D062F
S113152020919A0630919B0630939D0620939C0649
S113153090939B0680939A0680917E068F5F80939A
S11315407E060E94450880917B0690917C06E816F1
S1131550F90628F4D12C53C0DD24D39401C0D12C36
S1131560E0919C06F0919D068081811107C08FEF68
S11315709FEF90937C0680937B0641C0E0919C068C
S1131580F0919D060580F681E02DC681D7818A8180
S11315909B81E816F90628F490937C0680937B06D9
S11315A02EC08E010E5F1F4FC8010E94F4038C8968
S11315B09D89892B21F0CE010C960E94F4038E891B
S11315C090918306981710F48093830690E09C0111
S11315D0220F331F220F331F220F331F820F931F3B
S11315E0B8018055994F0E94A2039E89E091DD06BF
S11315F0F091DE068689981708F0AECFB1CFE0915E
S1131600DD06F091DE06868990E0FC01EE0FFF1FF7
S1131610EE0FFF1FEE0FFF1F8E0F9F1FFC01E05503
S1131620F94F8081823010F0DD24D39480917F06BD
S113163081110CC00DC080918006909181060196A5
S11316409093810680938006D12C02C0DD24D3942C
S11316508D2DDF91CF911F910F91FF90EF90DF902F
S113166008950F931F93CF93DF930FB6F8940F92BF
S11316708091780681508093780680917806811154
S11316805CC080918606811133C05AC0E0919606F1
S1131690F0919706C681D781CE010C960E94F4037F
S11316A08E010E5F1F4FC8010E94F4038E89909132
S11316B08306981710F48093830690E09C01220F10
S11316C0331F220F331F220F331F820F931FB801C2
S11316D08055994F0E94A2039E89E091DD06F09106
S11316E0DE068689981730F081E080937F0602C079
S11316F0C0E0D0E0809191068111C8CFCD2B11F0CC
S11317000E944508C0918006D0918106209769F017
S11317100E94730A882319F081E080937F06219741
S1131720B9F7109281061092800680917F06882373
S113173031F00E943C0581E003C080E001C080E0FC
S11317400F900FBEDF91CF911F910F910895CF930A
S1131750DF93EC01892B49F00E946D0A60E0CE0111
S11317600E94A9090E94310B01C080E0811102C0CE
S11317700E943C05DF91CF910895809178068823DB
S113178021F081E080937F06089510927F062091D6
S1131790830601C02150822F90E0FC01EE0FFF1F51
S11317A0EE0FFF1FEE0FFF1FE80FF91FE055F94F73
S11317B03081332379F3AC01440F551F440F551F77
S11317C0440F551F480F591FDF010180F281E02D9E
S11317D00280F381E02D1296FC93EE9311974D5401
S11317E0594FE417F50729F442815381FD015283CF
S11317F04183FC01EE0FFF1FEE0FFF1FEE0FFF1FD3
S11318008E0F9F1FFC01E055F94F0180F281E02DFE
S1131810868197819093DE068093DD06209383066C
S11318200895CF93DF93EB016091DD067091DE069E
S1131830645F7F4F0E94C30361E0CE010E94A90947
S1131840DF91CF9108950F931F93CF93DF93DC0122
S11318501596ED91FC911697C681D7818E01045F90
S11318601F4FC8010E94F4038091780681111CC0A7
S11318700A501109C8010E94F4038E8990918306CD
S1131880981710F48093830690E09C01220F331F75
S1131890220F331F220F331F820F931FB80180556D
S11318A0994F0E94A20305C0B80181E996E00E9405
S11318B0A2039E89E091DD06F091DE0686898917F0
S11318C020F481E080937F0601C080E0DF91CF9116
S11318D01F910F91089520917E06FC012083209191
S11318E0840630918506328321830895CF93DF9354
S11318F00FB6F8940F924091840650918506EC013E
S113190029813A81DA01A21BB30BF881E0917E06AA
S1131910FE1741F04217530728F0FB011182108291
S113192081E011C0EB0128813981A217B30740F48B
S11319302A1B3B0B398328830E946B0C80E003C075
S11319401982188281E00F900FBEDF91CF91089524
S113195081E080937F060895FB01DC0102C00190C1
S11119600D9241505040D8F70895F894FFCFEF
S113196E043738392F3435362A3132332D20303D71
S113197E2B77616974004B65797061645F74617370
S113198E6B004C43445F7461736B0049444C4500D7
S9030000FC
